{
  "_format": "hh-sol-artifact-1",
  "contractName": "ETHVault",
  "sourceName": "contracts/ETHVault.sol",
  "abi": [
    {
      "inputs": [
        {
          "internalType": "string",
          "name": "_name",
          "type": "string"
        },
        {
          "internalType": "address",
          "name": "_token",
          "type": "address"
        }
      ],
      "stateMutability": "nonpayable",
      "type": "constructor"
    },
    {
      "inputs": [],
      "name": "checkBalance",
      "outputs": [
        {
          "internalType": "uint256",
          "name": "",
          "type": "uint256"
        }
      ],
      "stateMutability": "view",
      "type": "function"
    },
    {
      "inputs": [],
      "name": "depositERC20",
      "outputs": [],
      "stateMutability": "nonpayable",
      "type": "function"
    },
    {
      "inputs": [],
      "name": "name",
      "outputs": [
        {
          "internalType": "string",
          "name": "",
          "type": "string"
        }
      ],
      "stateMutability": "view",
      "type": "function"
    }
  ],
  "bytecode": "0x608060405273a0c68c638235ee32657e8f720a23cec1bfc77c77600260006101000a81548173ffffffffffffffffffffffffffffffffffffffff021916908373ffffffffffffffffffffffffffffffffffffffff1602179055507340ec5b33f54e0e8a33a975908c5ba1c14e5bbbdf600360006101000a81548173ffffffffffffffffffffffffffffffffffffffff021916908373ffffffffffffffffffffffffffffffffffffffff160217905550739b591bf6970d271c4660df5e08d85773e998b59e600460006101000a81548173ffffffffffffffffffffffffffffffffffffffff021916908373ffffffffffffffffffffffffffffffffffffffff1602179055503480156200011057600080fd5b5060405162000e5138038062000e518339818101604052810190620001369190620002d0565b81600190805190602001906200014e92919062000197565b50806000806101000a81548173ffffffffffffffffffffffffffffffffffffffff021916908373ffffffffffffffffffffffffffffffffffffffff1602179055505050620004e8565b828054620001a590620003f3565b90600052602060002090601f016020900481019282620001c9576000855562000215565b82601f10620001e457805160ff191683800117855562000215565b8280016001018555821562000215579182015b8281111562000214578251825591602001919060010190620001f7565b5b50905062000224919062000228565b5090565b5b808211156200024357600081600090555060010162000229565b5090565b60006200025e620002588462000353565b6200032a565b9050828152602081018484840111156200027757600080fd5b62000284848285620003bd565b509392505050565b6000815190506200029d81620004ce565b92915050565b600082601f830112620002b557600080fd5b8151620002c784826020860162000247565b91505092915050565b60008060408385031215620002e457600080fd5b600083015167ffffffffffffffff811115620002ff57600080fd5b6200030d85828601620002a3565b925050602062000320858286016200028c565b9150509250929050565b60006200033662000349565b905062000344828262000429565b919050565b6000604051905090565b600067ffffffffffffffff8211156200037157620003706200048e565b5b6200037c82620004bd565b9050602081019050919050565b600062000396826200039d565b9050919050565b600073ffffffffffffffffffffffffffffffffffffffff82169050919050565b60005b83811015620003dd578082015181840152602081019050620003c0565b83811115620003ed576000848401525b50505050565b600060028204905060018216806200040c57607f821691505b602082108114156200042357620004226200045f565b5b50919050565b6200043482620004bd565b810181811067ffffffffffffffff821117156200045657620004556200048e565b5b80604052505050565b7f4e487b7100000000000000000000000000000000000000000000000000000000600052602260045260246000fd5b7f4e487b7100000000000000000000000000000000000000000000000000000000600052604160045260246000fd5b6000601f19601f8301169050919050565b620004d98162000389565b8114620004e557600080fd5b50565b61095980620004f86000396000f3fe608060405234801561001057600080fd5b50600436106100415760003560e01c806306fdde031461004657806383f994e514610064578063c71daccb1461006e575b600080fd5b61004e61008c565b60405161005b919061073e565b60405180910390f35b61006c61011a565b005b610076610397565b6040516100839190610790565b60405180910390f35b600180546100999061085e565b80601f01602080910402602001604051908101604052809291908181526020018280546100c59061085e565b80156101125780601f106100e757610100808354040283529160200191610112565b820191906000526020600020905b8154815290600101906020018083116100f557829003601f168201915b505050505081565b60008060009054906101000a900473ffffffffffffffffffffffffffffffffffffffff1690506000600260009054906101000a900473ffffffffffffffffffffffffffffffffffffffff1690506000610171610397565b90506101956040518060600160405280602581526020016108ff6025913982610452565b8273ffffffffffffffffffffffffffffffffffffffff1663095ea7b3600360009054906101000a900473ffffffffffffffffffffffffffffffffffffffff16836040518363ffffffff1660e01b81526004016101f2929190610715565b602060405180830381600087803b15801561020c57600080fd5b505af1158015610220573d6000803e3d6000fd5b505050506040513d601f19601f8201168201806040525081019061024491906105da565b506102846040518060400160405280601481526020017f446573706f736974696e6720616d6f756e743a2000000000000000000000000081525082610452565b8173ffffffffffffffffffffffffffffffffffffffff1663e3dec8fb600460009054906101000a900473ffffffffffffffffffffffffffffffffffffffff1660008054906101000a900473ffffffffffffffffffffffffffffffffffffffff16846040516020016102f59190610790565b6040516020818303038152906040526040518463ffffffff1660e01b8152600401610322939291906106d7565b600060405180830381600087803b15801561033c57600080fd5b505af1158015610350573d6000803e3d6000fd5b505050506103926040518060400160405280601081526020017f4465706f73697420636f6d706c657465000000000000000000000000000000008152506104ee565b505050565b60008060008054906101000a900473ffffffffffffffffffffffffffffffffffffffff16905060008173ffffffffffffffffffffffffffffffffffffffff166370a08231306040518263ffffffff1660e01b81526004016103f891906106bc565b60206040518083038186803b15801561041057600080fd5b505afa158015610424573d6000803e3d6000fd5b505050506040513d601f19601f820116820180604052508101906104489190610603565b9050809250505090565b6104ea8282604051602401610468929190610760565b6040516020818303038152906040527f9710a9d0000000000000000000000000000000000000000000000000000000007bffffffffffffffffffffffffffffffffffffffffffffffffffffffff19166020820180517bffffffffffffffffffffffffffffffffffffffffffffffffffffffff8381831617835250505050610587565b5050565b61058481604051602401610502919061073e565b6040516020818303038152906040527f41304fac000000000000000000000000000000000000000000000000000000007bffffffffffffffffffffffffffffffffffffffffffffffffffffffff19166020820180517bffffffffffffffffffffffffffffffffffffffffffffffffffffffff8381831617835250505050610587565b50565b60008151905060006a636f6e736f6c652e6c6f679050602083016000808483855afa5050505050565b6000815190506105bf816108d0565b92915050565b6000815190506105d4816108e7565b92915050565b6000602082840312156105ec57600080fd5b60006105fa848285016105b0565b91505092915050565b60006020828403121561061557600080fd5b6000610623848285016105c5565b91505092915050565b610635816107e3565b82525050565b6000610646826107ab565b61065081856107c1565b935061066081856020860161082b565b610669816108bf565b840191505092915050565b600061067f826107b6565b61068981856107d2565b935061069981856020860161082b565b6106a2816108bf565b840191505092915050565b6106b681610821565b82525050565b60006020820190506106d1600083018461062c565b92915050565b60006060820190506106ec600083018661062c565b6106f9602083018561062c565b818103604083015261070b818461063b565b9050949350505050565b600060408201905061072a600083018561062c565b61073760208301846106ad565b9392505050565b600060208201905081810360008301526107588184610674565b905092915050565b6000604082019050818103600083015261077a8185610674565b905061078960208301846106ad565b9392505050565b60006020820190506107a560008301846106ad565b92915050565b600081519050919050565b600081519050919050565b600082825260208201905092915050565b600082825260208201905092915050565b60006107ee82610801565b9050919050565b60008115159050919050565b600073ffffffffffffffffffffffffffffffffffffffff82169050919050565b6000819050919050565b60005b8381101561084957808201518184015260208101905061082e565b83811115610858576000848401525b50505050565b6000600282049050600182168061087657607f821691505b6020821081141561088a57610889610890565b5b50919050565b7f4e487b7100000000000000000000000000000000000000000000000000000000600052602260045260246000fd5b6000601f19601f8301169050919050565b6108d9816107f5565b81146108e457600080fd5b50565b6108f081610821565b81146108fb57600080fd5b5056fe417070726f76696e6720657263323050726564696361746520666f7220616d6f756e743a20a2646970667358221220cc56517ad509bf9b9fc5e616dafde23524eb0b0b4f4bd07ef5a1a2d4aaa55bbb64736f6c63430008040033",
  "linkReferences": {},
  "deployedLinkReferences": {}
}