{
  "_format": "hh-sol-artifact-1",
  "contractName": "ETHVault",
  "sourceName": "contracts/ETHVault.sol",
  "abi": [
    {
      "inputs": [
        {
          "internalType": "string",
          "name": "_name",
          "type": "string"
        },
        {
          "internalType": "address",
          "name": "_token",
          "type": "address"
        }
      ],
      "stateMutability": "nonpayable",
      "type": "constructor"
    },
    {
      "inputs": [],
      "name": "checkBalance",
      "outputs": [
        {
          "internalType": "uint256",
          "name": "",
          "type": "uint256"
        }
      ],
      "stateMutability": "view",
      "type": "function"
    },
    {
      "inputs": [],
      "name": "name",
      "outputs": [
        {
          "internalType": "string",
          "name": "",
          "type": "string"
        }
      ],
      "stateMutability": "view",
      "type": "function"
    }
  ],
  "bytecode": "0x608060405234801561001057600080fd5b506040516107ae3803806107ae833981810160405281019061003291906101b0565b8160019080519060200190610048929190610090565b50806000806101000a81548173ffffffffffffffffffffffffffffffffffffffff021916908373ffffffffffffffffffffffffffffffffffffffff16021790555050506103a8565b82805461009c906102bf565b90600052602060002090601f0160209004810192826100be5760008555610105565b82601f106100d757805160ff1916838001178555610105565b82800160010185558215610105579182015b828111156101045782518255916020019190600101906100e9565b5b5090506101129190610116565b5090565b5b8082111561012f576000816000905550600101610117565b5090565b600061014661014184610229565b610204565b90508281526020810184848401111561015e57600080fd5b61016984828561028c565b509392505050565b60008151905061018081610391565b92915050565b600082601f83011261019757600080fd5b81516101a7848260208601610133565b91505092915050565b600080604083850312156101c357600080fd5b600083015167ffffffffffffffff8111156101dd57600080fd5b6101e985828601610186565b92505060206101fa85828601610171565b9150509250929050565b600061020e61021f565b905061021a82826102f1565b919050565b6000604051905090565b600067ffffffffffffffff82111561024457610243610351565b5b61024d82610380565b9050602081019050919050565b60006102658261026c565b9050919050565b600073ffffffffffffffffffffffffffffffffffffffff82169050919050565b60005b838110156102aa57808201518184015260208101905061028f565b838111156102b9576000848401525b50505050565b600060028204905060018216806102d757607f821691505b602082108114156102eb576102ea610322565b5b50919050565b6102fa82610380565b810181811067ffffffffffffffff8211171561031957610318610351565b5b80604052505050565b7f4e487b7100000000000000000000000000000000000000000000000000000000600052602260045260246000fd5b7f4e487b7100000000000000000000000000000000000000000000000000000000600052604160045260246000fd5b6000601f19601f8301169050919050565b61039a8161025a565b81146103a557600080fd5b50565b6103f7806103b76000396000f3fe608060405234801561001057600080fd5b50600436106100365760003560e01c806306fdde031461003b578063c71daccb14610059575b600080fd5b610043610077565b6040516100509190610270565b60405180910390f35b610061610105565b60405161006e9190610292565b60405180910390f35b6001805461008490610338565b80601f01602080910402602001604051908101604052809291908181526020018280546100b090610338565b80156100fd5780601f106100d2576101008083540402835291602001916100fd565b820191906000526020600020905b8154815290600101906020018083116100e057829003601f168201915b505050505081565b60008060008054906101000a900473ffffffffffffffffffffffffffffffffffffffff16905060008173ffffffffffffffffffffffffffffffffffffffff166370a08231306040518263ffffffff1660e01b81526004016101669190610255565b60206040518083038186803b15801561017e57600080fd5b505afa158015610192573d6000803e3d6000fd5b505050506040513d601f19601f820116820180604052508101906101b691906101d5565b9050809250505090565b6000815190506101cf816103aa565b92915050565b6000602082840312156101e757600080fd5b60006101f5848285016101c0565b91505092915050565b610207816102c9565b82525050565b6000610218826102ad565b61022281856102b8565b9350610232818560208601610305565b61023b81610399565b840191505092915050565b61024f816102fb565b82525050565b600060208201905061026a60008301846101fe565b92915050565b6000602082019050818103600083015261028a818461020d565b905092915050565b60006020820190506102a76000830184610246565b92915050565b600081519050919050565b600082825260208201905092915050565b60006102d4826102db565b9050919050565b600073ffffffffffffffffffffffffffffffffffffffff82169050919050565b6000819050919050565b60005b83811015610323578082015181840152602081019050610308565b83811115610332576000848401525b50505050565b6000600282049050600182168061035057607f821691505b602082108114156103645761036361036a565b5b50919050565b7f4e487b7100000000000000000000000000000000000000000000000000000000600052602260045260246000fd5b6000601f19601f8301169050919050565b6103b3816102fb565b81146103be57600080fd5b5056fea26469706673582212201d72c6575099b1fa575d6c9238ccee9cb90d30274e899b9fbb4bb64c3930066a64736f6c63430008040033",
  "linkReferences": {},
  "deployedLinkReferences": {}
}