{
  "_format": "hh-sol-artifact-1",
  "contractName": "ETHVault",
  "sourceName": "contracts/ETHVault.sol",
  "abi": [
    {
      "inputs": [
        {
          "internalType": "string",
          "name": "_name",
          "type": "string"
        },
        {
          "internalType": "address",
          "name": "_token",
          "type": "address"
        }
      ],
      "stateMutability": "nonpayable",
      "type": "constructor"
    },
    {
      "stateMutability": "payable",
      "type": "fallback"
    },
    {
      "inputs": [
        {
          "internalType": "bytes[]",
          "name": "burnTxnHashes",
          "type": "bytes[]"
        }
      ],
      "name": "bringAllBalancesBackToEth",
      "outputs": [],
      "stateMutability": "nonpayable",
      "type": "function"
    },
    {
      "inputs": [
        {
          "internalType": "uint256",
          "name": "amount",
          "type": "uint256"
        }
      ],
      "name": "deposit",
      "outputs": [],
      "stateMutability": "nonpayable",
      "type": "function"
    },
    {
      "inputs": [
        {
          "internalType": "uint256",
          "name": "amount",
          "type": "uint256"
        },
        {
          "internalType": "address",
          "name": "holder",
          "type": "address"
        },
        {
          "internalType": "address",
          "name": "spender",
          "type": "address"
        },
        {
          "internalType": "uint256",
          "name": "nonce",
          "type": "uint256"
        },
        {
          "internalType": "uint256",
          "name": "expiry",
          "type": "uint256"
        },
        {
          "internalType": "bool",
          "name": "allowed",
          "type": "bool"
        },
        {
          "internalType": "uint8",
          "name": "v",
          "type": "uint8"
        },
        {
          "internalType": "bytes32",
          "name": "r",
          "type": "bytes32"
        },
        {
          "internalType": "bytes32",
          "name": "s",
          "type": "bytes32"
        }
      ],
      "name": "depositWithPermit",
      "outputs": [],
      "stateMutability": "nonpayable",
      "type": "function"
    },
    {
      "inputs": [],
      "name": "moveAllBalancesToPolygon",
      "outputs": [],
      "stateMutability": "nonpayable",
      "type": "function"
    },
    {
      "inputs": [
        {
          "internalType": "address",
          "name": "addressOnPolygonSide",
          "type": "address"
        }
      ],
      "name": "moveFundsToPolygon",
      "outputs": [],
      "stateMutability": "nonpayable",
      "type": "function"
    },
    {
      "inputs": [],
      "name": "name",
      "outputs": [
        {
          "internalType": "string",
          "name": "",
          "type": "string"
        }
      ],
      "stateMutability": "view",
      "type": "function"
    },
    {
      "inputs": [],
      "name": "printAddresses",
      "outputs": [
        {
          "internalType": "address[]",
          "name": "",
          "type": "address[]"
        }
      ],
      "stateMutability": "view",
      "type": "function"
    },
    {
      "inputs": [
        {
          "internalType": "uint256",
          "name": "",
          "type": "uint256"
        }
      ],
      "name": "userAddresses",
      "outputs": [
        {
          "internalType": "address",
          "name": "",
          "type": "address"
        }
      ],
      "stateMutability": "view",
      "type": "function"
    },
    {
      "inputs": [],
      "name": "userBalance",
      "outputs": [
        {
          "internalType": "uint256",
          "name": "",
          "type": "uint256"
        }
      ],
      "stateMutability": "view",
      "type": "function"
    },
    {
      "inputs": [],
      "name": "vaultBalance",
      "outputs": [
        {
          "internalType": "uint256",
          "name": "",
          "type": "uint256"
        }
      ],
      "stateMutability": "view",
      "type": "function"
    }
  ],
  "bytecode": "0x608060405273bbd7cbfa79faee899eaf900f13c9065bf03b1a74600260006101000a81548173ffffffffffffffffffffffffffffffffffffffff021916908373ffffffffffffffffffffffffffffffffffffffff16021790555073dd6596f2029e6233deffaca316e6a95217d4dc34600360006101000a81548173ffffffffffffffffffffffffffffffffffffffff021916908373ffffffffffffffffffffffffffffffffffffffff160217905550348015620000bb57600080fd5b5060405162001dff38038062001dff8339818101604052810190620000e191906200027b565b8160019080519060200190620000f992919062000142565b50806000806101000a81548173ffffffffffffffffffffffffffffffffffffffff021916908373ffffffffffffffffffffffffffffffffffffffff160217905550505062000493565b82805462000150906200039e565b90600052602060002090601f016020900481019282620001745760008555620001c0565b82601f106200018f57805160ff1916838001178555620001c0565b82800160010185558215620001c0579182015b82811115620001bf578251825591602001919060010190620001a2565b5b509050620001cf9190620001d3565b5090565b5b80821115620001ee576000816000905550600101620001d4565b5090565b6000620002096200020384620002fe565b620002d5565b9050828152602081018484840111156200022257600080fd5b6200022f84828562000368565b509392505050565b600081519050620002488162000479565b92915050565b600082601f8301126200026057600080fd5b815162000272848260208601620001f2565b91505092915050565b600080604083850312156200028f57600080fd5b600083015167ffffffffffffffff811115620002aa57600080fd5b620002b8858286016200024e565b9250506020620002cb8582860162000237565b9150509250929050565b6000620002e1620002f4565b9050620002ef8282620003d4565b919050565b6000604051905090565b600067ffffffffffffffff8211156200031c576200031b62000439565b5b620003278262000468565b9050602081019050919050565b6000620003418262000348565b9050919050565b600073ffffffffffffffffffffffffffffffffffffffff82169050919050565b60005b83811015620003885780820151818401526020810190506200036b565b8381111562000398576000848401525b50505050565b60006002820490506001821680620003b757607f821691505b60208210811415620003ce57620003cd6200040a565b5b50919050565b620003df8262000468565b810181811067ffffffffffffffff8211171562000401576200040062000439565b5b80604052505050565b7f4e487b7100000000000000000000000000000000000000000000000000000000600052602260045260246000fd5b7f4e487b7100000000000000000000000000000000000000000000000000000000600052604160045260246000fd5b6000601f19601f8301169050919050565b620004848162000334565b81146200049057600080fd5b50565b61195c80620004a36000396000f3fe6080604052600436106100955760003560e01c806394eee3041161005957806394eee3041461017f578063aece36a8146101a8578063b6b55f25146101d1578063bf152765146101fa578063c628e64b1461022557610096565b806306971f8d1461009857806306fdde03146100c35780630bf6cc08146100ee57806331047ed014610119578063502c9bd51461014257610096565b5b005b3480156100a457600080fd5b506100ad61023c565b6040516100ba9190611532565b60405180910390f35b3480156100cf57600080fd5b506100d86102ca565b6040516100e59190611578565b60405180910390f35b3480156100fa57600080fd5b50610103610358565b60405161011091906115ca565b60405180910390f35b34801561012557600080fd5b50610140600480360381019061013b9190611106565b610413565b005b34801561014e57600080fd5b5061016960048036038101906101649190611174565b610517565b60405161017691906113fb565b60405180910390f35b34801561018b57600080fd5b506101a660048036038101906101a191906110dd565b610556565b005b3480156101b457600080fd5b506101cf60048036038101906101ca91906111c6565b6107b2565b005b3480156101dd57600080fd5b506101f860048036038101906101f39190611174565b61091e565b005b34801561020657600080fd5b5061020f6109e2565b60405161021c91906115ca565b60405180910390f35b34801561023157600080fd5b5061023a610a29565b005b606060058054806020026020016040519081016040528092919081815260200182805480156102c057602002820191906000526020600020905b8160009054906101000a900473ffffffffffffffffffffffffffffffffffffffff1673ffffffffffffffffffffffffffffffffffffffff1681526020019060010190808311610276575b5050505050905090565b600180546102d7906117a4565b80601f0160208091040260200160405190810160405280929190818152602001828054610303906117a4565b80156103505780601f1061032557610100808354040283529160200191610350565b820191906000526020600020905b81548152906001019060200180831161033357829003601f168201915b505050505081565b60008060008054906101000a900473ffffffffffffffffffffffffffffffffffffffff16905060008173ffffffffffffffffffffffffffffffffffffffff166370a08231306040518263ffffffff1660e01b81526004016103b991906113fb565b60206040518083038186803b1580156103d157600080fd5b505afa1580156103e5573d6000803e3d6000fd5b505050506040513d601f19601f82011682018060405250810190610409919061119d565b9050809250505090565b6000600260009054906101000a900473ffffffffffffffffffffffffffffffffffffffff16905060005b83839050811015610511578173ffffffffffffffffffffffffffffffffffffffff16633805550f85858481811061049d577f4e487b7100000000000000000000000000000000000000000000000000000000600052603260045260246000fd5b90506020028101906104af91906115e5565b6040518363ffffffff1660e01b81526004016104cc929190611554565b600060405180830381600087803b1580156104e657600080fd5b505af11580156104fa573d6000803e3d6000fd5b505050508080610509906117d6565b91505061043d565b50505050565b6005818154811061052757600080fd5b906000526020600020016000915054906101000a900473ffffffffffffffffffffffffffffffffffffffff1681565b60008060009054906101000a900473ffffffffffffffffffffffffffffffffffffffff1690506000600260009054906101000a900473ffffffffffffffffffffffffffffffffffffffff16905060006105ad610358565b90506105d16040518060600160405280602581526020016119026025913982610d03565b8273ffffffffffffffffffffffffffffffffffffffff1663095ea7b3600360009054906101000a900473ffffffffffffffffffffffffffffffffffffffff16836040518363ffffffff1660e01b815260040161062e929190611509565b602060405180830381600087803b15801561064857600080fd5b505af115801561065c573d6000803e3d6000fd5b505050506040513d601f19601f82011682018060405250810190610680919061114b565b506106c06040518060400160405280601481526020017f446573706f736974696e6720616d6f756e743a2000000000000000000000000081525082610d03565b8173ffffffffffffffffffffffffffffffffffffffff1663e3dec8fb8560008054906101000a900473ffffffffffffffffffffffffffffffffffffffff168460405160200161070f91906115ca565b6040516020818303038152906040526040518463ffffffff1660e01b815260040161073c93929190611416565b600060405180830381600087803b15801561075657600080fd5b505af115801561076a573d6000803e3d6000fd5b505050506107ac6040518060400160405280601081526020017f4465706f73697420636f6d706c65746500000000000000000000000000000000815250610d9f565b50505050565b60008060009054906101000a900473ffffffffffffffffffffffffffffffffffffffff16905060008060009054906101000a900473ffffffffffffffffffffffffffffffffffffffff1690508173ffffffffffffffffffffffffffffffffffffffff16638fcbaf0c8b8b8b8b8b8b8b8b6040518963ffffffff1660e01b815260040161084598979695949392919061148b565b600060405180830381600087803b15801561085f57600080fd5b505af1158015610873573d6000803e3d6000fd5b505050506108818a8c610e38565b8073ffffffffffffffffffffffffffffffffffffffff166323b872dd8b308e6040518463ffffffff1660e01b81526004016108be93929190611454565b602060405180830381600087803b1580156108d857600080fd5b505af11580156108ec573d6000803e3d6000fd5b505050506040513d601f19601f82011682018060405250810190610910919061114b565b505050505050505050505050565b60008060009054906101000a900473ffffffffffffffffffffffffffffffffffffffff16905061094e3383610e38565b8073ffffffffffffffffffffffffffffffffffffffff166323b872dd3330856040518463ffffffff1660e01b815260040161098b93929190611454565b602060405180830381600087803b1580156109a557600080fd5b505af11580156109b9573d6000803e3d6000fd5b505050506040513d601f19601f820116820180604052508101906109dd919061114b565b505050565b6000600460003373ffffffffffffffffffffffffffffffffffffffff1673ffffffffffffffffffffffffffffffffffffffff16815260200190815260200160002054905090565b60008060009054906101000a900473ffffffffffffffffffffffffffffffffffffffff1690506000600260009054906101000a900473ffffffffffffffffffffffffffffffffffffffff1690506000610a80610358565b90508273ffffffffffffffffffffffffffffffffffffffff1663095ea7b3600360009054906101000a900473ffffffffffffffffffffffffffffffffffffffff16836040518363ffffffff1660e01b8152600401610adf929190611509565b602060405180830381600087803b158015610af957600080fd5b505af1158015610b0d573d6000803e3d6000fd5b505050506040513d601f19601f82011682018060405250810190610b31919061114b565b5060005b600580549050811015610cef57600060058281548110610b7e577f4e487b7100000000000000000000000000000000000000000000000000000000600052603260045260246000fd5b9060005260206000200160009054906101000a900473ffffffffffffffffffffffffffffffffffffffff1690508373ffffffffffffffffffffffffffffffffffffffff1663e3dec8fb8260008054906101000a900473ffffffffffffffffffffffffffffffffffffffff16600460008673ffffffffffffffffffffffffffffffffffffffff1673ffffffffffffffffffffffffffffffffffffffff16815260200190815260200160002054604051602001610c3991906115ca565b6040516020818303038152906040526040518463ffffffff1660e01b8152600401610c6693929190611416565b600060405180830381600087803b158015610c8057600080fd5b505af1158015610c94573d6000803e3d6000fd5b50505050600460008273ffffffffffffffffffffffffffffffffffffffff1673ffffffffffffffffffffffffffffffffffffffff16815260200190815260200160002060009055508080610ce7906117d6565b915050610b35565b5060056000610cfe9190610fc2565b505050565b610d9b8282604051602401610d1992919061159a565b6040516020818303038152906040527f9710a9d0000000000000000000000000000000000000000000000000000000007bffffffffffffffffffffffffffffffffffffffffffffffffffffffff19166020820180517bffffffffffffffffffffffffffffffffffffffffffffffffffffffff8381831617835250505050610f99565b5050565b610e3581604051602401610db39190611578565b6040516020818303038152906040527f41304fac000000000000000000000000000000000000000000000000000000007bffffffffffffffffffffffffffffffffffffffffffffffffffffffff19166020820180517bffffffffffffffffffffffffffffffffffffffffffffffffffffffff8381831617835250505050610f99565b50565b6000600460008473ffffffffffffffffffffffffffffffffffffffff1673ffffffffffffffffffffffffffffffffffffffff168152602001908152602001600020541115610edb5780600460008473ffffffffffffffffffffffffffffffffffffffff1673ffffffffffffffffffffffffffffffffffffffff1681526020019081526020016000206000828254610ecf91906116ad565b92505081905550610f95565b6005829080600181540180825580915050600190039060005260206000200160009091909190916101000a81548173ffffffffffffffffffffffffffffffffffffffff021916908373ffffffffffffffffffffffffffffffffffffffff16021790555080600460008473ffffffffffffffffffffffffffffffffffffffff1673ffffffffffffffffffffffffffffffffffffffff1681526020019081526020016000206000828254610f8d91906116ad565b925050819055505b5050565b60008151905060006a636f6e736f6c652e6c6f679050602083016000808483855afa5050505050565b5080546000825590600052602060002090810190610fe09190610fe3565b50565b5b80821115610ffc576000816000905550600101610fe4565b5090565b60008135905061100f8161188e565b92915050565b60008083601f84011261102757600080fd5b8235905067ffffffffffffffff81111561104057600080fd5b60208301915083602082028301111561105857600080fd5b9250929050565b60008135905061106e816118a5565b92915050565b600081519050611083816118a5565b92915050565b600081359050611098816118bc565b92915050565b6000813590506110ad816118d3565b92915050565b6000815190506110c2816118d3565b92915050565b6000813590506110d7816118ea565b92915050565b6000602082840312156110ef57600080fd5b60006110fd84828501611000565b91505092915050565b6000806020838503121561111957600080fd5b600083013567ffffffffffffffff81111561113357600080fd5b61113f85828601611015565b92509250509250929050565b60006020828403121561115d57600080fd5b600061116b84828501611074565b91505092915050565b60006020828403121561118657600080fd5b60006111948482850161109e565b91505092915050565b6000602082840312156111af57600080fd5b60006111bd848285016110b3565b91505092915050565b60008060008060008060008060006101208a8c0312156111e557600080fd5b60006111f38c828d0161109e565b99505060206112048c828d01611000565b98505060406112158c828d01611000565b97505060606112268c828d0161109e565b96505060806112378c828d0161109e565b95505060a06112488c828d0161105f565b94505060c06112598c828d016110c8565b93505060e061126a8c828d01611089565b92505061010061127c8c828d01611089565b9150509295985092959850929598565b600061129883836112a4565b60208301905092915050565b6112ad81611703565b82525050565b6112bc81611703565b82525050565b60006112cd8261164c565b6112d7818561167a565b93506112e28361163c565b8060005b838110156113135781516112fa888261128c565b97506113058361166d565b9250506001810190506112e6565b5085935050505092915050565b61132981611715565b82525050565b61133881611721565b82525050565b600061134a838561168b565b9350611357838584611762565b6113608361187d565b840190509392505050565b600061137682611657565b611380818561168b565b9350611390818560208601611771565b6113998161187d565b840191505092915050565b60006113af82611662565b6113b9818561169c565b93506113c9818560208601611771565b6113d28161187d565b840191505092915050565b6113e68161174b565b82525050565b6113f581611755565b82525050565b600060208201905061141060008301846112b3565b92915050565b600060608201905061142b60008301866112b3565b61143860208301856112b3565b818103604083015261144a818461136b565b9050949350505050565b600060608201905061146960008301866112b3565b61147660208301856112b3565b61148360408301846113dd565b949350505050565b6000610100820190506114a1600083018b6112b3565b6114ae602083018a6112b3565b6114bb60408301896113dd565b6114c860608301886113dd565b6114d56080830187611320565b6114e260a08301866113ec565b6114ef60c083018561132f565b6114fc60e083018461132f565b9998505050505050505050565b600060408201905061151e60008301856112b3565b61152b60208301846113dd565b9392505050565b6000602082019050818103600083015261154c81846112c2565b905092915050565b6000602082019050818103600083015261156f81848661133e565b90509392505050565b6000602082019050818103600083015261159281846113a4565b905092915050565b600060408201905081810360008301526115b481856113a4565b90506115c360208301846113dd565b9392505050565b60006020820190506115df60008301846113dd565b92915050565b600080833560016020038436030381126115fe57600080fd5b80840192508235915067ffffffffffffffff82111561161c57600080fd5b60208301925060018202360383131561163457600080fd5b509250929050565b6000819050602082019050919050565b600081519050919050565b600081519050919050565b600081519050919050565b6000602082019050919050565b600082825260208201905092915050565b600082825260208201905092915050565b600082825260208201905092915050565b60006116b88261174b565b91506116c38361174b565b9250827fffffffffffffffffffffffffffffffffffffffffffffffffffffffffffffffff038211156116f8576116f761181f565b5b828201905092915050565b600061170e8261172b565b9050919050565b60008115159050919050565b6000819050919050565b600073ffffffffffffffffffffffffffffffffffffffff82169050919050565b6000819050919050565b600060ff82169050919050565b82818337600083830152505050565b60005b8381101561178f578082015181840152602081019050611774565b8381111561179e576000848401525b50505050565b600060028204905060018216806117bc57607f821691505b602082108114156117d0576117cf61184e565b5b50919050565b60006117e18261174b565b91507fffffffffffffffffffffffffffffffffffffffffffffffffffffffffffffffff8214156118145761181361181f565b5b600182019050919050565b7f4e487b7100000000000000000000000000000000000000000000000000000000600052601160045260246000fd5b7f4e487b7100000000000000000000000000000000000000000000000000000000600052602260045260246000fd5b6000601f19601f8301169050919050565b61189781611703565b81146118a257600080fd5b50565b6118ae81611715565b81146118b957600080fd5b50565b6118c581611721565b81146118d057600080fd5b50565b6118dc8161174b565b81146118e757600080fd5b50565b6118f381611755565b81146118fe57600080fd5b5056fe417070726f76696e6720657263323050726564696361746520666f7220616d6f756e743a20a26469706673582212205bfe94dae4d478104be584162c5c9597f948339f26e15b505f7db25549de687264736f6c63430008040033",
  "linkReferences": {},
  "deployedLinkReferences": {}
}