{
  "_format": "hh-sol-artifact-1",
  "contractName": "ETHVault",
  "sourceName": "contracts/ETHVault.sol",
  "abi": [
    {
      "inputs": [
        {
          "internalType": "string",
          "name": "_name",
          "type": "string"
        },
        {
          "internalType": "address",
          "name": "_token",
          "type": "address"
        }
      ],
      "stateMutability": "nonpayable",
      "type": "constructor"
    },
    {
      "stateMutability": "payable",
      "type": "fallback"
    },
    {
      "inputs": [
        {
          "internalType": "bytes[]",
          "name": "burnTxnHashes",
          "type": "bytes[]"
        }
      ],
      "name": "bringAllBalancesBackToEth",
      "outputs": [],
      "stateMutability": "nonpayable",
      "type": "function"
    },
    {
      "inputs": [
        {
          "internalType": "uint256",
          "name": "amount",
          "type": "uint256"
        }
      ],
      "name": "deposit",
      "outputs": [],
      "stateMutability": "nonpayable",
      "type": "function"
    },
    {
      "inputs": [
        {
          "internalType": "uint256",
          "name": "amount",
          "type": "uint256"
        },
        {
          "internalType": "uint256",
          "name": "fee",
          "type": "uint256"
        },
        {
          "internalType": "address",
          "name": "holder",
          "type": "address"
        },
        {
          "internalType": "address",
          "name": "spender",
          "type": "address"
        },
        {
          "internalType": "uint256",
          "name": "nonce",
          "type": "uint256"
        },
        {
          "internalType": "uint256",
          "name": "expiry",
          "type": "uint256"
        },
        {
          "internalType": "bool",
          "name": "allowed",
          "type": "bool"
        },
        {
          "internalType": "uint8",
          "name": "v",
          "type": "uint8"
        },
        {
          "internalType": "bytes32",
          "name": "r",
          "type": "bytes32"
        },
        {
          "internalType": "bytes32",
          "name": "s",
          "type": "bytes32"
        }
      ],
      "name": "depositWithPermit",
      "outputs": [],
      "stateMutability": "nonpayable",
      "type": "function"
    },
    {
      "inputs": [],
      "name": "moveAllBalancesToPolygon",
      "outputs": [],
      "stateMutability": "nonpayable",
      "type": "function"
    },
    {
      "inputs": [
        {
          "internalType": "address",
          "name": "addressOnPolygonSide",
          "type": "address"
        }
      ],
      "name": "moveFundsToPolygon",
      "outputs": [],
      "stateMutability": "nonpayable",
      "type": "function"
    },
    {
      "inputs": [],
      "name": "name",
      "outputs": [
        {
          "internalType": "string",
          "name": "",
          "type": "string"
        }
      ],
      "stateMutability": "view",
      "type": "function"
    },
    {
      "inputs": [],
      "name": "printAddresses",
      "outputs": [
        {
          "internalType": "address[]",
          "name": "",
          "type": "address[]"
        }
      ],
      "stateMutability": "view",
      "type": "function"
    },
    {
      "inputs": [
        {
          "internalType": "uint256",
          "name": "",
          "type": "uint256"
        }
      ],
      "name": "userAddresses",
      "outputs": [
        {
          "internalType": "address",
          "name": "",
          "type": "address"
        }
      ],
      "stateMutability": "view",
      "type": "function"
    },
    {
      "inputs": [],
      "name": "userBalance",
      "outputs": [
        {
          "internalType": "uint256",
          "name": "",
          "type": "uint256"
        }
      ],
      "stateMutability": "view",
      "type": "function"
    },
    {
      "inputs": [],
      "name": "vaultBalance",
      "outputs": [
        {
          "internalType": "uint256",
          "name": "",
          "type": "uint256"
        }
      ],
      "stateMutability": "view",
      "type": "function"
    }
  ],
  "bytecode": "0x608060405273bbd7cbfa79faee899eaf900f13c9065bf03b1a74600260006101000a81548173ffffffffffffffffffffffffffffffffffffffff021916908373ffffffffffffffffffffffffffffffffffffffff16021790555073dd6596f2029e6233deffaca316e6a95217d4dc34600360006101000a81548173ffffffffffffffffffffffffffffffffffffffff021916908373ffffffffffffffffffffffffffffffffffffffff160217905550348015620000bb57600080fd5b5060405162001e5438038062001e548339818101604052810190620000e191906200027b565b8160019080519060200190620000f992919062000142565b50806000806101000a81548173ffffffffffffffffffffffffffffffffffffffff021916908373ffffffffffffffffffffffffffffffffffffffff160217905550505062000493565b82805462000150906200039e565b90600052602060002090601f016020900481019282620001745760008555620001c0565b82601f106200018f57805160ff1916838001178555620001c0565b82800160010185558215620001c0579182015b82811115620001bf578251825591602001919060010190620001a2565b5b509050620001cf9190620001d3565b5090565b5b80821115620001ee576000816000905550600101620001d4565b5090565b6000620002096200020384620002fe565b620002d5565b9050828152602081018484840111156200022257600080fd5b6200022f84828562000368565b509392505050565b600081519050620002488162000479565b92915050565b600082601f8301126200026057600080fd5b815162000272848260208601620001f2565b91505092915050565b600080604083850312156200028f57600080fd5b600083015167ffffffffffffffff811115620002aa57600080fd5b620002b8858286016200024e565b9250506020620002cb8582860162000237565b9150509250929050565b6000620002e1620002f4565b9050620002ef8282620003d4565b919050565b6000604051905090565b600067ffffffffffffffff8211156200031c576200031b62000439565b5b620003278262000468565b9050602081019050919050565b6000620003418262000348565b9050919050565b600073ffffffffffffffffffffffffffffffffffffffff82169050919050565b60005b83811015620003885780820151818401526020810190506200036b565b8381111562000398576000848401525b50505050565b60006002820490506001821680620003b757607f821691505b60208210811415620003ce57620003cd6200040a565b5b50919050565b620003df8262000468565b810181811067ffffffffffffffff8211171562000401576200040062000439565b5b80604052505050565b7f4e487b7100000000000000000000000000000000000000000000000000000000600052602260045260246000fd5b7f4e487b7100000000000000000000000000000000000000000000000000000000600052604160045260246000fd5b6000601f19601f8301169050919050565b620004848162000334565b81146200049057600080fd5b50565b6119b180620004a36000396000f3fe6080604052600436106100955760003560e01c806394eee3041161005957806394eee3041461017f578063b5190281146101a8578063b6b55f25146101d1578063bf152765146101fa578063c628e64b1461022557610096565b806306971f8d1461009857806306fdde03146100c35780630bf6cc08146100ee57806331047ed014610119578063502c9bd51461014257610096565b5b005b3480156100a457600080fd5b506100ad61023c565b6040516100ba9190611553565b60405180910390f35b3480156100cf57600080fd5b506100d86102ca565b6040516100e59190611599565b60405180910390f35b3480156100fa57600080fd5b50610103610358565b60405161011091906115eb565b60405180910390f35b34801561012557600080fd5b50610140600480360381019061013b9190611112565b610413565b005b34801561014e57600080fd5b5061016960048036038101906101649190611180565b610517565b604051610176919061141c565b60405180910390f35b34801561018b57600080fd5b506101a660048036038101906101a191906110e9565b610556565b005b3480156101b457600080fd5b506101cf60048036038101906101ca91906111d2565b6107b2565b005b3480156101dd57600080fd5b506101f860048036038101906101f39190611180565b61092a565b005b34801561020657600080fd5b5061020f6109ee565b60405161021c91906115eb565b60405180910390f35b34801561023157600080fd5b5061023a610a35565b005b606060058054806020026020016040519081016040528092919081815260200182805480156102c057602002820191906000526020600020905b8160009054906101000a900473ffffffffffffffffffffffffffffffffffffffff1673ffffffffffffffffffffffffffffffffffffffff1681526020019060010190808311610276575b5050505050905090565b600180546102d7906117f9565b80601f0160208091040260200160405190810160405280929190818152602001828054610303906117f9565b80156103505780601f1061032557610100808354040283529160200191610350565b820191906000526020600020905b81548152906001019060200180831161033357829003601f168201915b505050505081565b60008060008054906101000a900473ffffffffffffffffffffffffffffffffffffffff16905060008173ffffffffffffffffffffffffffffffffffffffff166370a08231306040518263ffffffff1660e01b81526004016103b9919061141c565b60206040518083038186803b1580156103d157600080fd5b505afa1580156103e5573d6000803e3d6000fd5b505050506040513d601f19601f8201168201806040525081019061040991906111a9565b9050809250505090565b6000600260009054906101000a900473ffffffffffffffffffffffffffffffffffffffff16905060005b83839050811015610511578173ffffffffffffffffffffffffffffffffffffffff16633805550f85858481811061049d577f4e487b7100000000000000000000000000000000000000000000000000000000600052603260045260246000fd5b90506020028101906104af9190611606565b6040518363ffffffff1660e01b81526004016104cc929190611575565b600060405180830381600087803b1580156104e657600080fd5b505af11580156104fa573d6000803e3d6000fd5b5050505080806105099061182b565b91505061043d565b50505050565b6005818154811061052757600080fd5b906000526020600020016000915054906101000a900473ffffffffffffffffffffffffffffffffffffffff1681565b60008060009054906101000a900473ffffffffffffffffffffffffffffffffffffffff1690506000600260009054906101000a900473ffffffffffffffffffffffffffffffffffffffff16905060006105ad610358565b90506105d16040518060600160405280602581526020016119576025913982610d0f565b8273ffffffffffffffffffffffffffffffffffffffff1663095ea7b3600360009054906101000a900473ffffffffffffffffffffffffffffffffffffffff16836040518363ffffffff1660e01b815260040161062e92919061152a565b602060405180830381600087803b15801561064857600080fd5b505af115801561065c573d6000803e3d6000fd5b505050506040513d601f19601f820116820180604052508101906106809190611157565b506106c06040518060400160405280601481526020017f446573706f736974696e6720616d6f756e743a2000000000000000000000000081525082610d0f565b8173ffffffffffffffffffffffffffffffffffffffff1663e3dec8fb8560008054906101000a900473ffffffffffffffffffffffffffffffffffffffff168460405160200161070f91906115eb565b6040516020818303038152906040526040518463ffffffff1660e01b815260040161073c93929190611437565b600060405180830381600087803b15801561075657600080fd5b505af115801561076a573d6000803e3d6000fd5b505050506107ac6040518060400160405280601081526020017f4465706f73697420636f6d706c65746500000000000000000000000000000000815250610dab565b50505050565b60008060009054906101000a900473ffffffffffffffffffffffffffffffffffffffff16905060008060009054906101000a900473ffffffffffffffffffffffffffffffffffffffff1690508173ffffffffffffffffffffffffffffffffffffffff16638fcbaf0c8b8b8b8b8b8b8b8b6040518963ffffffff1660e01b81526004016108459897969594939291906114ac565b600060405180830381600087803b15801561085f57600080fd5b505af1158015610873573d6000803e3d6000fd5b5050505061088c8a8c8e6108879190611724565b610e44565b8073ffffffffffffffffffffffffffffffffffffffff166323b872dd8b308f6040518463ffffffff1660e01b81526004016108c993929190611475565b602060405180830381600087803b1580156108e357600080fd5b505af11580156108f7573d6000803e3d6000fd5b505050506040513d601f19601f8201168201806040525081019061091b9190611157565b50505050505050505050505050565b60008060009054906101000a900473ffffffffffffffffffffffffffffffffffffffff16905061095a3383610e44565b8073ffffffffffffffffffffffffffffffffffffffff166323b872dd3330856040518463ffffffff1660e01b815260040161099793929190611475565b602060405180830381600087803b1580156109b157600080fd5b505af11580156109c5573d6000803e3d6000fd5b505050506040513d601f19601f820116820180604052508101906109e99190611157565b505050565b6000600460003373ffffffffffffffffffffffffffffffffffffffff1673ffffffffffffffffffffffffffffffffffffffff16815260200190815260200160002054905090565b60008060009054906101000a900473ffffffffffffffffffffffffffffffffffffffff1690506000600260009054906101000a900473ffffffffffffffffffffffffffffffffffffffff1690506000610a8c610358565b90508273ffffffffffffffffffffffffffffffffffffffff1663095ea7b3600360009054906101000a900473ffffffffffffffffffffffffffffffffffffffff16836040518363ffffffff1660e01b8152600401610aeb92919061152a565b602060405180830381600087803b158015610b0557600080fd5b505af1158015610b19573d6000803e3d6000fd5b505050506040513d601f19601f82011682018060405250810190610b3d9190611157565b5060005b600580549050811015610cfb57600060058281548110610b8a577f4e487b7100000000000000000000000000000000000000000000000000000000600052603260045260246000fd5b9060005260206000200160009054906101000a900473ffffffffffffffffffffffffffffffffffffffff1690508373ffffffffffffffffffffffffffffffffffffffff1663e3dec8fb8260008054906101000a900473ffffffffffffffffffffffffffffffffffffffff16600460008673ffffffffffffffffffffffffffffffffffffffff1673ffffffffffffffffffffffffffffffffffffffff16815260200190815260200160002054604051602001610c4591906115eb565b6040516020818303038152906040526040518463ffffffff1660e01b8152600401610c7293929190611437565b600060405180830381600087803b158015610c8c57600080fd5b505af1158015610ca0573d6000803e3d6000fd5b50505050600460008273ffffffffffffffffffffffffffffffffffffffff1673ffffffffffffffffffffffffffffffffffffffff16815260200190815260200160002060009055508080610cf39061182b565b915050610b41565b5060056000610d0a9190610fce565b505050565b610da78282604051602401610d259291906115bb565b6040516020818303038152906040527f9710a9d0000000000000000000000000000000000000000000000000000000007bffffffffffffffffffffffffffffffffffffffffffffffffffffffff19166020820180517bffffffffffffffffffffffffffffffffffffffffffffffffffffffff8381831617835250505050610fa5565b5050565b610e4181604051602401610dbf9190611599565b6040516020818303038152906040527f41304fac000000000000000000000000000000000000000000000000000000007bffffffffffffffffffffffffffffffffffffffffffffffffffffffff19166020820180517bffffffffffffffffffffffffffffffffffffffffffffffffffffffff8381831617835250505050610fa5565b50565b6000600460008473ffffffffffffffffffffffffffffffffffffffff1673ffffffffffffffffffffffffffffffffffffffff168152602001908152602001600020541115610ee75780600460008473ffffffffffffffffffffffffffffffffffffffff1673ffffffffffffffffffffffffffffffffffffffff1681526020019081526020016000206000828254610edb91906116ce565b92505081905550610fa1565b6005829080600181540180825580915050600190039060005260206000200160009091909190916101000a81548173ffffffffffffffffffffffffffffffffffffffff021916908373ffffffffffffffffffffffffffffffffffffffff16021790555080600460008473ffffffffffffffffffffffffffffffffffffffff1673ffffffffffffffffffffffffffffffffffffffff1681526020019081526020016000206000828254610f9991906116ce565b925050819055505b5050565b60008151905060006a636f6e736f6c652e6c6f679050602083016000808483855afa5050505050565b5080546000825590600052602060002090810190610fec9190610fef565b50565b5b80821115611008576000816000905550600101610ff0565b5090565b60008135905061101b816118e3565b92915050565b60008083601f84011261103357600080fd5b8235905067ffffffffffffffff81111561104c57600080fd5b60208301915083602082028301111561106457600080fd5b9250929050565b60008135905061107a816118fa565b92915050565b60008151905061108f816118fa565b92915050565b6000813590506110a481611911565b92915050565b6000813590506110b981611928565b92915050565b6000815190506110ce81611928565b92915050565b6000813590506110e38161193f565b92915050565b6000602082840312156110fb57600080fd5b60006111098482850161100c565b91505092915050565b6000806020838503121561112557600080fd5b600083013567ffffffffffffffff81111561113f57600080fd5b61114b85828601611021565b92509250509250929050565b60006020828403121561116957600080fd5b600061117784828501611080565b91505092915050565b60006020828403121561119257600080fd5b60006111a0848285016110aa565b91505092915050565b6000602082840312156111bb57600080fd5b60006111c9848285016110bf565b91505092915050565b6000806000806000806000806000806101408b8d0312156111f257600080fd5b60006112008d828e016110aa565b9a505060206112118d828e016110aa565b99505060406112228d828e0161100c565b98505060606112338d828e0161100c565b97505060806112448d828e016110aa565b96505060a06112558d828e016110aa565b95505060c06112668d828e0161106b565b94505060e06112778d828e016110d4565b9350506101006112898d828e01611095565b92505061012061129b8d828e01611095565b9150509295989b9194979a5092959850565b60006112b983836112c5565b60208301905092915050565b6112ce81611758565b82525050565b6112dd81611758565b82525050565b60006112ee8261166d565b6112f8818561169b565b93506113038361165d565b8060005b8381101561133457815161131b88826112ad565b97506113268361168e565b925050600181019050611307565b5085935050505092915050565b61134a8161176a565b82525050565b61135981611776565b82525050565b600061136b83856116ac565b93506113788385846117b7565b611381836118d2565b840190509392505050565b600061139782611678565b6113a181856116ac565b93506113b18185602086016117c6565b6113ba816118d2565b840191505092915050565b60006113d082611683565b6113da81856116bd565b93506113ea8185602086016117c6565b6113f3816118d2565b840191505092915050565b611407816117a0565b82525050565b611416816117aa565b82525050565b600060208201905061143160008301846112d4565b92915050565b600060608201905061144c60008301866112d4565b61145960208301856112d4565b818103604083015261146b818461138c565b9050949350505050565b600060608201905061148a60008301866112d4565b61149760208301856112d4565b6114a460408301846113fe565b949350505050565b6000610100820190506114c2600083018b6112d4565b6114cf602083018a6112d4565b6114dc60408301896113fe565b6114e960608301886113fe565b6114f66080830187611341565b61150360a083018661140d565b61151060c0830185611350565b61151d60e0830184611350565b9998505050505050505050565b600060408201905061153f60008301856112d4565b61154c60208301846113fe565b9392505050565b6000602082019050818103600083015261156d81846112e3565b905092915050565b6000602082019050818103600083015261159081848661135f565b90509392505050565b600060208201905081810360008301526115b381846113c5565b905092915050565b600060408201905081810360008301526115d581856113c5565b90506115e460208301846113fe565b9392505050565b600060208201905061160060008301846113fe565b92915050565b6000808335600160200384360303811261161f57600080fd5b80840192508235915067ffffffffffffffff82111561163d57600080fd5b60208301925060018202360383131561165557600080fd5b509250929050565b6000819050602082019050919050565b600081519050919050565b600081519050919050565b600081519050919050565b6000602082019050919050565b600082825260208201905092915050565b600082825260208201905092915050565b600082825260208201905092915050565b60006116d9826117a0565b91506116e4836117a0565b9250827fffffffffffffffffffffffffffffffffffffffffffffffffffffffffffffffff0382111561171957611718611874565b5b828201905092915050565b600061172f826117a0565b915061173a836117a0565b92508282101561174d5761174c611874565b5b828203905092915050565b600061176382611780565b9050919050565b60008115159050919050565b6000819050919050565b600073ffffffffffffffffffffffffffffffffffffffff82169050919050565b6000819050919050565b600060ff82169050919050565b82818337600083830152505050565b60005b838110156117e45780820151818401526020810190506117c9565b838111156117f3576000848401525b50505050565b6000600282049050600182168061181157607f821691505b60208210811415611825576118246118a3565b5b50919050565b6000611836826117a0565b91507fffffffffffffffffffffffffffffffffffffffffffffffffffffffffffffffff82141561186957611868611874565b5b600182019050919050565b7f4e487b7100000000000000000000000000000000000000000000000000000000600052601160045260246000fd5b7f4e487b7100000000000000000000000000000000000000000000000000000000600052602260045260246000fd5b6000601f19601f8301169050919050565b6118ec81611758565b81146118f757600080fd5b50565b6119038161176a565b811461190e57600080fd5b50565b61191a81611776565b811461192557600080fd5b50565b611931816117a0565b811461193c57600080fd5b50565b611948816117aa565b811461195357600080fd5b5056fe417070726f76696e6720657263323050726564696361746520666f7220616d6f756e743a20a2646970667358221220938b85dc379de31479fabeac7573a6118be71ad62c6eff62189ed075335aef7864736f6c63430008040033",
  "linkReferences": {},
  "deployedLinkReferences": {}
}