{
  "_format": "hh-sol-artifact-1",
  "contractName": "ETHVault",
  "sourceName": "contracts/ETHVault.sol",
  "abi": [
    {
      "inputs": [
        {
          "internalType": "string",
          "name": "_name",
          "type": "string"
        },
        {
          "internalType": "address",
          "name": "_token",
          "type": "address"
        }
      ],
      "stateMutability": "nonpayable",
      "type": "constructor"
    },
    {
      "stateMutability": "payable",
      "type": "fallback"
    },
    {
      "inputs": [
        {
          "internalType": "uint256",
          "name": "amount",
          "type": "uint256"
        }
      ],
      "name": "deposit",
      "outputs": [],
      "stateMutability": "nonpayable",
      "type": "function"
    },
    {
      "inputs": [
        {
          "internalType": "address",
          "name": "addressOnPolygonSide",
          "type": "address"
        }
      ],
      "name": "moveFundsToPolygon",
      "outputs": [],
      "stateMutability": "nonpayable",
      "type": "function"
    },
    {
      "inputs": [],
      "name": "name",
      "outputs": [
        {
          "internalType": "string",
          "name": "",
          "type": "string"
        }
      ],
      "stateMutability": "view",
      "type": "function"
    },
    {
      "inputs": [],
      "name": "userBalance",
      "outputs": [
        {
          "internalType": "uint256",
          "name": "",
          "type": "uint256"
        }
      ],
      "stateMutability": "view",
      "type": "function"
    },
    {
      "inputs": [],
      "name": "vaultBalance",
      "outputs": [
        {
          "internalType": "uint256",
          "name": "",
          "type": "uint256"
        }
      ],
      "stateMutability": "view",
      "type": "function"
    }
  ],
  "bytecode": "0x608060405273bbd7cbfa79faee899eaf900f13c9065bf03b1a74600260006101000a81548173ffffffffffffffffffffffffffffffffffffffff021916908373ffffffffffffffffffffffffffffffffffffffff16021790555073dd6596f2029e6233deffaca316e6a95217d4dc34600360006101000a81548173ffffffffffffffffffffffffffffffffffffffff021916908373ffffffffffffffffffffffffffffffffffffffff160217905550348015620000bb57600080fd5b5060405162001119380380620011198339818101604052810190620000e191906200027b565b8160019080519060200190620000f992919062000142565b50806000806101000a81548173ffffffffffffffffffffffffffffffffffffffff021916908373ffffffffffffffffffffffffffffffffffffffff160217905550505062000493565b82805462000150906200039e565b90600052602060002090601f016020900481019282620001745760008555620001c0565b82601f106200018f57805160ff1916838001178555620001c0565b82800160010185558215620001c0579182015b82811115620001bf578251825591602001919060010190620001a2565b5b509050620001cf9190620001d3565b5090565b5b80821115620001ee576000816000905550600101620001d4565b5090565b6000620002096200020384620002fe565b620002d5565b9050828152602081018484840111156200022257600080fd5b6200022f84828562000368565b509392505050565b600081519050620002488162000479565b92915050565b600082601f8301126200026057600080fd5b815162000272848260208601620001f2565b91505092915050565b600080604083850312156200028f57600080fd5b600083015167ffffffffffffffff811115620002aa57600080fd5b620002b8858286016200024e565b9250506020620002cb8582860162000237565b9150509250929050565b6000620002e1620002f4565b9050620002ef8282620003d4565b919050565b6000604051905090565b600067ffffffffffffffff8211156200031c576200031b62000439565b5b620003278262000468565b9050602081019050919050565b6000620003418262000348565b9050919050565b600073ffffffffffffffffffffffffffffffffffffffff82169050919050565b60005b83811015620003885780820151818401526020810190506200036b565b8381111562000398576000848401525b50505050565b60006002820490506001821680620003b757607f821691505b60208210811415620003ce57620003cd6200040a565b5b50919050565b620003df8262000468565b810181811067ffffffffffffffff8211171562000401576200040062000439565b5b80604052505050565b7f4e487b7100000000000000000000000000000000000000000000000000000000600052602260045260246000fd5b7f4e487b7100000000000000000000000000000000000000000000000000000000600052604160045260246000fd5b6000601f19601f8301169050919050565b620004848162000334565b81146200049057600080fd5b50565b610c7680620004a36000396000f3fe60806040526004361061004e5760003560e01c806306fdde03146100515780630bf6cc081461007c57806394eee304146100a7578063b6b55f25146100d0578063bf152765146100f95761004f565b5b005b34801561005d57600080fd5b50610066610124565b60405161007391906109bf565b60405180910390f35b34801561008857600080fd5b506100916101b2565b60405161009e9190610a11565b60405180910390f35b3480156100b357600080fd5b506100ce60048036038101906100c991906107d2565b61026d565b005b3480156100dc57600080fd5b506100f760048036038101906100f29190610824565b6104c9565b005b34801561010557600080fd5b5061010e6105d9565b60405161011b9190610a11565b60405180910390f35b6001805461013190610b35565b80601f016020809104026020016040519081016040528092919081815260200182805461015d90610b35565b80156101aa5780601f1061017f576101008083540402835291602001916101aa565b820191906000526020600020905b81548152906001019060200180831161018d57829003601f168201915b505050505081565b60008060008054906101000a900473ffffffffffffffffffffffffffffffffffffffff16905060008173ffffffffffffffffffffffffffffffffffffffff166370a08231306040518263ffffffff1660e01b81526004016102139190610906565b60206040518083038186803b15801561022b57600080fd5b505afa15801561023f573d6000803e3d6000fd5b505050506040513d601f19601f82011682018060405250810190610263919061084d565b9050809250505090565b60008060009054906101000a900473ffffffffffffffffffffffffffffffffffffffff1690506000600260009054906101000a900473ffffffffffffffffffffffffffffffffffffffff16905060006102c46101b2565b90506102e8604051806060016040528060258152602001610c1c6025913982610620565b8273ffffffffffffffffffffffffffffffffffffffff1663095ea7b3600360009054906101000a900473ffffffffffffffffffffffffffffffffffffffff16836040518363ffffffff1660e01b8152600401610345929190610996565b602060405180830381600087803b15801561035f57600080fd5b505af1158015610373573d6000803e3d6000fd5b505050506040513d601f19601f8201168201806040525081019061039791906107fb565b506103d76040518060400160405280601481526020017f446573706f736974696e6720616d6f756e743a2000000000000000000000000081525082610620565b8173ffffffffffffffffffffffffffffffffffffffff1663e3dec8fb8560008054906101000a900473ffffffffffffffffffffffffffffffffffffffff16846040516020016104269190610a11565b6040516020818303038152906040526040518463ffffffff1660e01b815260040161045393929190610921565b600060405180830381600087803b15801561046d57600080fd5b505af1158015610481573d6000803e3d6000fd5b505050506104c36040518060400160405280601081526020017f4465706f73697420636f6d706c657465000000000000000000000000000000008152506106bc565b50505050565b60008060009054906101000a900473ffffffffffffffffffffffffffffffffffffffff1690508073ffffffffffffffffffffffffffffffffffffffff166323b872dd3330856040518463ffffffff1660e01b815260040161052c9392919061095f565b602060405180830381600087803b15801561054657600080fd5b505af115801561055a573d6000803e3d6000fd5b505050506040513d601f19601f8201168201806040525081019061057e91906107fb565b5081600460003373ffffffffffffffffffffffffffffffffffffffff1673ffffffffffffffffffffffffffffffffffffffff16815260200190815260200160002060008282546105ce9190610a64565b925050819055505050565b6000600460003373ffffffffffffffffffffffffffffffffffffffff1673ffffffffffffffffffffffffffffffffffffffff16815260200190815260200160002054905090565b6106b882826040516024016106369291906109e1565b6040516020818303038152906040527f9710a9d0000000000000000000000000000000000000000000000000000000007bffffffffffffffffffffffffffffffffffffffffffffffffffffffff19166020820180517bffffffffffffffffffffffffffffffffffffffffffffffffffffffff8381831617835250505050610755565b5050565b610752816040516024016106d091906109bf565b6040516020818303038152906040527f41304fac000000000000000000000000000000000000000000000000000000007bffffffffffffffffffffffffffffffffffffffffffffffffffffffff19166020820180517bffffffffffffffffffffffffffffffffffffffffffffffffffffffff8381831617835250505050610755565b50565b60008151905060006a636f6e736f6c652e6c6f679050602083016000808483855afa5050505050565b60008135905061078d81610bd6565b92915050565b6000815190506107a281610bed565b92915050565b6000813590506107b781610c04565b92915050565b6000815190506107cc81610c04565b92915050565b6000602082840312156107e457600080fd5b60006107f28482850161077e565b91505092915050565b60006020828403121561080d57600080fd5b600061081b84828501610793565b91505092915050565b60006020828403121561083657600080fd5b6000610844848285016107a8565b91505092915050565b60006020828403121561085f57600080fd5b600061086d848285016107bd565b91505092915050565b61087f81610aba565b82525050565b600061089082610a2c565b61089a8185610a42565b93506108aa818560208601610b02565b6108b381610bc5565b840191505092915050565b60006108c982610a37565b6108d38185610a53565b93506108e3818560208601610b02565b6108ec81610bc5565b840191505092915050565b61090081610af8565b82525050565b600060208201905061091b6000830184610876565b92915050565b60006060820190506109366000830186610876565b6109436020830185610876565b81810360408301526109558184610885565b9050949350505050565b60006060820190506109746000830186610876565b6109816020830185610876565b61098e60408301846108f7565b949350505050565b60006040820190506109ab6000830185610876565b6109b860208301846108f7565b9392505050565b600060208201905081810360008301526109d981846108be565b905092915050565b600060408201905081810360008301526109fb81856108be565b9050610a0a60208301846108f7565b9392505050565b6000602082019050610a2660008301846108f7565b92915050565b600081519050919050565b600081519050919050565b600082825260208201905092915050565b600082825260208201905092915050565b6000610a6f82610af8565b9150610a7a83610af8565b9250827fffffffffffffffffffffffffffffffffffffffffffffffffffffffffffffffff03821115610aaf57610aae610b67565b5b828201905092915050565b6000610ac582610ad8565b9050919050565b60008115159050919050565b600073ffffffffffffffffffffffffffffffffffffffff82169050919050565b6000819050919050565b60005b83811015610b20578082015181840152602081019050610b05565b83811115610b2f576000848401525b50505050565b60006002820490506001821680610b4d57607f821691505b60208210811415610b6157610b60610b96565b5b50919050565b7f4e487b7100000000000000000000000000000000000000000000000000000000600052601160045260246000fd5b7f4e487b7100000000000000000000000000000000000000000000000000000000600052602260045260246000fd5b6000601f19601f8301169050919050565b610bdf81610aba565b8114610bea57600080fd5b50565b610bf681610acc565b8114610c0157600080fd5b50565b610c0d81610af8565b8114610c1857600080fd5b5056fe417070726f76696e6720657263323050726564696361746520666f7220616d6f756e743a20a2646970667358221220dd326d34d5240c13af23dbaeeabe36a83168f713b450c115c79f6259e603e3cf64736f6c63430008040033",
  "linkReferences": {},
  "deployedLinkReferences": {}
}