{
  "_format": "hh-sol-artifact-1",
  "contractName": "PolygonVault",
  "sourceName": "contracts/PolygonVault.sol",
  "abi": [
    {
      "inputs": [
        {
          "internalType": "string",
          "name": "txnHash",
          "type": "string"
        },
        {
          "internalType": "uint256",
          "name": "fee",
          "type": "uint256"
        },
        {
          "internalType": "address",
          "name": "holder",
          "type": "address"
        }
      ],
      "name": "addHash",
      "outputs": [],
      "stateMutability": "nonpayable",
      "type": "function"
    },
    {
      "inputs": [],
      "name": "emptyHashes",
      "outputs": [],
      "stateMutability": "nonpayable",
      "type": "function"
    },
    {
      "inputs": [],
      "name": "getHashes",
      "outputs": [
        {
          "internalType": "string[]",
          "name": "",
          "type": "string[]"
        }
      ],
      "stateMutability": "view",
      "type": "function"
    },
    {
      "inputs": [],
      "name": "vaultBalance",
      "outputs": [
        {
          "internalType": "uint256",
          "name": "",
          "type": "uint256"
        }
      ],
      "stateMutability": "view",
      "type": "function"
    }
  ],
  "bytecode": "0x60806040527327a44456bedb94dbd59d0f0a14fe977c777fc5c3600160006101000a81548173ffffffffffffffffffffffffffffffffffffffff021916908373ffffffffffffffffffffffffffffffffffffffff16021790555034801561006557600080fd5b506109df806100756000396000f3fe608060405234801561001057600080fd5b506004361061004c5760003560e01c80630bf6cc08146100515780633cd6c1821461006f5780634245d48e1461008b57806358d62fa4146100a9575b600080fd5b6100596100b3565b6040516100669190610742565b60405180910390f35b6100896004803603810190610084919061055e565b610170565b005b610093610269565b6040516100a09190610720565b60405180910390f35b6100b1610342565b005b600080600160009054906101000a900473ffffffffffffffffffffffffffffffffffffffff16905060008173ffffffffffffffffffffffffffffffffffffffff166370a08231306040518263ffffffff1660e01b815260040161011691906106ce565b60206040518083038186803b15801561012e57600080fd5b505afa158015610142573d6000803e3d6000fd5b505050506040513d601f19601f8201168201806040525081019061016691906105c5565b9050809250505090565b6000839080600181540180825580915050600190039060005260206000200160009091909190915090805190602001906101ab929190610351565b506000600160009054906101000a900473ffffffffffffffffffffffffffffffffffffffff1690508073ffffffffffffffffffffffffffffffffffffffff166323b872dd8330866040518463ffffffff1660e01b8152600401610210939291906106e9565b602060405180830381600087803b15801561022a57600080fd5b505af115801561023e573d6000803e3d6000fd5b505050506040513d601f19601f820116820180604052508101906102629190610535565b5050505050565b60606000805480602002602001604051908101604052809291908181526020016000905b828210156103395783829060005260206000200180546102ac90610892565b80601f01602080910402602001604051908101604052809291908181526020018280546102d890610892565b80156103255780601f106102fa57610100808354040283529160200191610325565b820191906000526020600020905b81548152906001019060200180831161030857829003601f168201915b50505050508152602001906001019061028d565b50505050905090565b60008061034f91906103d7565b565b82805461035d90610892565b90600052602060002090601f01602090048101928261037f57600085556103c6565b82601f1061039857805160ff19168380011785556103c6565b828001600101855582156103c6579182015b828111156103c55782518255916020019190600101906103aa565b5b5090506103d391906103f8565b5090565b50805460008255906000526020600020908101906103f59190610415565b50565b5b808211156104115760008160009055506001016103f9565b5090565b5b80821115610435576000818161042c9190610439565b50600101610416565b5090565b50805461044590610892565b6000825580601f106104575750610476565b601f01602090049060005260206000209081019061047591906103f8565b5b50565b600061048c61048784610782565b61075d565b9050828152602081018484840111156104a457600080fd5b6104af848285610850565b509392505050565b6000813590506104c681610964565b92915050565b6000815190506104db8161097b565b92915050565b600082601f8301126104f257600080fd5b8135610502848260208601610479565b91505092915050565b60008135905061051a81610992565b92915050565b60008151905061052f81610992565b92915050565b60006020828403121561054757600080fd5b6000610555848285016104cc565b91505092915050565b60008060006060848603121561057357600080fd5b600084013567ffffffffffffffff81111561058d57600080fd5b610599868287016104e1565b93505060206105aa8682870161050b565b92505060406105bb868287016104b7565b9150509250925092565b6000602082840312156105d757600080fd5b60006105e584828501610520565b91505092915050565b60006105fa8383610686565b905092915050565b61060b81610808565b82525050565b600061061c826107c3565b61062681856107e6565b935083602082028501610638856107b3565b8060005b85811015610674578484038952815161065585826105ee565b9450610660836107d9565b925060208a0199505060018101905061063c565b50829750879550505050505092915050565b6000610691826107ce565b61069b81856107f7565b93506106ab81856020860161085f565b6106b481610953565b840191505092915050565b6106c881610846565b82525050565b60006020820190506106e36000830184610602565b92915050565b60006060820190506106fe6000830186610602565b61070b6020830185610602565b61071860408301846106bf565b949350505050565b6000602082019050818103600083015261073a8184610611565b905092915050565b600060208201905061075760008301846106bf565b92915050565b6000610767610778565b905061077382826108c4565b919050565b6000604051905090565b600067ffffffffffffffff82111561079d5761079c610924565b5b6107a682610953565b9050602081019050919050565b6000819050602082019050919050565b600081519050919050565b600081519050919050565b6000602082019050919050565b600082825260208201905092915050565b600082825260208201905092915050565b600061081382610826565b9050919050565b60008115159050919050565b600073ffffffffffffffffffffffffffffffffffffffff82169050919050565b6000819050919050565b82818337600083830152505050565b60005b8381101561087d578082015181840152602081019050610862565b8381111561088c576000848401525b50505050565b600060028204905060018216806108aa57607f821691505b602082108114156108be576108bd6108f5565b5b50919050565b6108cd82610953565b810181811067ffffffffffffffff821117156108ec576108eb610924565b5b80604052505050565b7f4e487b7100000000000000000000000000000000000000000000000000000000600052602260045260246000fd5b7f4e487b7100000000000000000000000000000000000000000000000000000000600052604160045260246000fd5b6000601f19601f8301169050919050565b61096d81610808565b811461097857600080fd5b50565b6109848161081a565b811461098f57600080fd5b50565b61099b81610846565b81146109a657600080fd5b5056fea2646970667358221220e79ef128c4969987c4a96e10064bff701df718a38d09ed0ff21ce184d0eab4a364736f6c63430008040033",
  "linkReferences": {},
  "deployedLinkReferences": {}
}