{
  "_format": "hh-sol-artifact-1",
  "contractName": "PolygonVault",
  "sourceName": "contracts/PolygonVault.sol",
  "abi": [
    {
      "inputs": [
        {
          "internalType": "string",
          "name": "txnHash",
          "type": "string"
        }
      ],
      "name": "addHash",
      "outputs": [],
      "stateMutability": "nonpayable",
      "type": "function"
    },
    {
      "inputs": [],
      "name": "emptyHashes",
      "outputs": [],
      "stateMutability": "nonpayable",
      "type": "function"
    },
    {
      "inputs": [],
      "name": "getHashes",
      "outputs": [
        {
          "internalType": "string[]",
          "name": "",
          "type": "string[]"
        }
      ],
      "stateMutability": "view",
      "type": "function"
    }
  ],
  "bytecode": "0x608060405234801561001057600080fd5b5061065b806100206000396000f3fe608060405234801561001057600080fd5b50600436106100415760003560e01c80634245d48e1461004657806358d62fa414610064578063aeb276021461006e575b600080fd5b61004e61008a565b60405161005b9190610444565b60405180910390f35b61006c610163565b005b61008860048036038101906100839190610341565b610172565b005b60606000805480602002602001604051908101604052809291908181526020016000905b8282101561015a5783829060005260206000200180546100cd90610553565b80601f01602080910402602001604051908101604052809291908181526020018280546100f990610553565b80156101465780601f1061011b57610100808354040283529160200191610146565b820191906000526020600020905b81548152906001019060200180831161012957829003601f168201915b5050505050815260200190600101906100ae565b50505050905090565b60008061017091906101b1565b565b6000819080600181540180825580915050600190039060005260206000200160009091909190915090805190602001906101ad9291906101d2565b5050565b50805460008255906000526020600020908101906101cf9190610258565b50565b8280546101de90610553565b90600052602060002090601f0160209004810192826102005760008555610247565b82601f1061021957805160ff1916838001178555610247565b82800160010185558215610247579182015b8281111561024657825182559160200191906001019061022b565b5b509050610254919061027c565b5090565b5b80821115610278576000818161026f9190610299565b50600101610259565b5090565b5b8082111561029557600081600090555060010161027d565b5090565b5080546102a590610553565b6000825580601f106102b757506102d6565b601f0160209004906000526020600020908101906102d5919061027c565b5b50565b60006102ec6102e78461048b565b610466565b90508281526020810184848401111561030457600080fd5b61030f848285610511565b509392505050565b600082601f83011261032857600080fd5b81356103388482602086016102d9565b91505092915050565b60006020828403121561035357600080fd5b600082013567ffffffffffffffff81111561036d57600080fd5b61037984828501610317565b91505092915050565b600061038e838361040b565b905092915050565b60006103a1826104cc565b6103ab81856104ef565b9350836020820285016103bd856104bc565b8060005b858110156103f957848403895281516103da8582610382565b94506103e5836104e2565b925060208a019950506001810190506103c1565b50829750879550505050505092915050565b6000610416826104d7565b6104208185610500565b9350610430818560208601610520565b61043981610614565b840191505092915050565b6000602082019050818103600083015261045e8184610396565b905092915050565b6000610470610481565b905061047c8282610585565b919050565b6000604051905090565b600067ffffffffffffffff8211156104a6576104a56105e5565b5b6104af82610614565b9050602081019050919050565b6000819050602082019050919050565b600081519050919050565b600081519050919050565b6000602082019050919050565b600082825260208201905092915050565b600082825260208201905092915050565b82818337600083830152505050565b60005b8381101561053e578082015181840152602081019050610523565b8381111561054d576000848401525b50505050565b6000600282049050600182168061056b57607f821691505b6020821081141561057f5761057e6105b6565b5b50919050565b61058e82610614565b810181811067ffffffffffffffff821117156105ad576105ac6105e5565b5b80604052505050565b7f4e487b7100000000000000000000000000000000000000000000000000000000600052602260045260246000fd5b7f4e487b7100000000000000000000000000000000000000000000000000000000600052604160045260246000fd5b6000601f19601f830116905091905056fea26469706673582212204ef4bb91b2618bb4f593539c533029d26a2191302c191fc6cfc8a22668739b1264736f6c63430008040033",
  "linkReferences": {},
  "deployedLinkReferences": {}
}