{
  "_format": "hh-sol-artifact-1",
  "contractName": "SimpleBridge",
  "sourceName": "contracts/SimpleBridge.sol",
  "abi": [
    {
      "inputs": [
        {
          "internalType": "address[]",
          "name": "acceptedTokens",
          "type": "address[]"
        }
      ],
      "stateMutability": "nonpayable",
      "type": "constructor"
    },
    {
      "anonymous": false,
      "inputs": [
        {
          "indexed": true,
          "internalType": "address",
          "name": "owner",
          "type": "address"
        },
        {
          "indexed": true,
          "internalType": "address",
          "name": "token",
          "type": "address"
        },
        {
          "indexed": false,
          "internalType": "uint256",
          "name": "value",
          "type": "uint256"
        }
      ],
      "name": "DepositFor",
      "type": "event"
    },
    {
      "anonymous": false,
      "inputs": [
        {
          "indexed": true,
          "internalType": "address",
          "name": "token",
          "type": "address"
        },
        {
          "indexed": false,
          "internalType": "uint256",
          "name": "value",
          "type": "uint256"
        }
      ],
      "name": "Withdraw",
      "type": "event"
    },
    {
      "stateMutability": "payable",
      "type": "fallback"
    },
    {
      "inputs": [
        {
          "internalType": "address",
          "name": "token",
          "type": "address"
        }
      ],
      "name": "balanceFor",
      "outputs": [
        {
          "internalType": "uint256",
          "name": "",
          "type": "uint256"
        }
      ],
      "stateMutability": "view",
      "type": "function"
    },
    {
      "inputs": [
        {
          "internalType": "address",
          "name": "token",
          "type": "address"
        }
      ],
      "name": "bridgeToPolygon",
      "outputs": [],
      "stateMutability": "nonpayable",
      "type": "function"
    },
    {
      "inputs": [
        {
          "internalType": "uint256",
          "name": "amount",
          "type": "uint256"
        },
        {
          "internalType": "address",
          "name": "token",
          "type": "address"
        },
        {
          "internalType": "address",
          "name": "user",
          "type": "address"
        }
      ],
      "name": "distribute",
      "outputs": [],
      "stateMutability": "nonpayable",
      "type": "function"
    },
    {
      "inputs": [
        {
          "internalType": "bytes",
          "name": "burnTxnHash",
          "type": "bytes"
        }
      ],
      "name": "exit",
      "outputs": [],
      "stateMutability": "nonpayable",
      "type": "function"
    },
    {
      "inputs": [
        {
          "internalType": "bytes[]",
          "name": "data",
          "type": "bytes[]"
        }
      ],
      "name": "multicall",
      "outputs": [
        {
          "internalType": "bytes[]",
          "name": "results",
          "type": "bytes[]"
        }
      ],
      "stateMutability": "nonpayable",
      "type": "function"
    },
    {
      "inputs": [
        {
          "internalType": "address",
          "name": "token",
          "type": "address"
        }
      ],
      "name": "withdraw",
      "outputs": [],
      "stateMutability": "nonpayable",
      "type": "function"
    }
  ],
  "bytecode": "0x608060405273bbd7cbfa79faee899eaf900f13c9065bf03b1a746000806101000a81548173ffffffffffffffffffffffffffffffffffffffff021916908373ffffffffffffffffffffffffffffffffffffffff16021790555073dd6596f2029e6233deffaca316e6a95217d4dc34600160006101000a81548173ffffffffffffffffffffffffffffffffffffffff021916908373ffffffffffffffffffffffffffffffffffffffff160217905550348015620000ba57600080fd5b50604051620015ed380380620015ed8339818101604052810190620000e09190620002fd565b6005461415620002265760005b8151811015620002245781818151811062000131577f4e487b7100000000000000000000000000000000000000000000000000000000600052603260045260246000fd5b602002602001015173ffffffffffffffffffffffffffffffffffffffff1663095ea7b3600160009054906101000a900473ffffffffffffffffffffffffffffffffffffffff167fffffffffffffffffffffffffffffffffffffffffffffffffffffffffffffffff6040518363ffffffff1660e01b8152600401620001b792919062000390565b602060405180830381600087803b158015620001d257600080fd5b505af1158015620001e7573d6000803e3d6000fd5b505050506040513d601f19601f820116820180604052508101906200020d919062000342565b5080806200021b90620004a9565b915050620000ed565b505b506200059a565b6000620002446200023e84620003e6565b620003bd565b905080838252602082019050828560208602820111156200026457600080fd5b60005b858110156200029857816200027d8882620002a2565b84526020840193506020830192505060018101905062000267565b5050509392505050565b600081519050620002b38162000566565b92915050565b600082601f830112620002cb57600080fd5b8151620002dd8482602086016200022d565b91505092915050565b600081519050620002f78162000580565b92915050565b6000602082840312156200031057600080fd5b600082015167ffffffffffffffff8111156200032b57600080fd5b6200033984828501620002b9565b91505092915050565b6000602082840312156200035557600080fd5b60006200036584828501620002e6565b91505092915050565b620003798162000415565b82525050565b6200038a816200045f565b82525050565b6000604082019050620003a760008301856200036e565b620003b660208301846200037f565b9392505050565b6000620003c9620003dc565b9050620003d7828262000473565b919050565b6000604051905090565b600067ffffffffffffffff82111562000404576200040362000526565b5b602082029050602081019050919050565b6000620004228262000435565b9050919050565b60008115159050919050565b600073ffffffffffffffffffffffffffffffffffffffff82169050919050565b6000819050919050565b60006200046c8262000455565b9050919050565b6200047e8262000555565b810181811067ffffffffffffffff82111715620004a0576200049f62000526565b5b80604052505050565b6000620004b68262000455565b91507fffffffffffffffffffffffffffffffffffffffffffffffffffffffffffffffff821415620004ec57620004eb620004f7565b5b600182019050919050565b7f4e487b7100000000000000000000000000000000000000000000000000000000600052601160045260246000fd5b7f4e487b7100000000000000000000000000000000000000000000000000000000600052604160045260246000fd5b6000601f19601f8301169050919050565b620005718162000415565b81146200057d57600080fd5b50565b6200058b8162000429565b81146200059757600080fd5b50565b61104380620005aa6000396000f3fe6080604052600436106100595760003560e01c80633805550f1461005c578063451353f11461008557806351cff8d9146100ae578063556849ea146100d7578063ac9650d814610114578063b16b68fd146101515761005a565b5b005b34801561006857600080fd5b50610083600480360381019061007e919061098f565b61017a565b005b34801561009157600080fd5b506100ac60048036038101906100a791906109fd565b61020b565b005b3480156100ba57600080fd5b506100d560048036038101906100d091906108f8565b61029e565b005b3480156100e357600080fd5b506100fe60048036038101906100f991906108f8565b610368565b60405161010b9190610d40565b60405180910390f35b34801561012057600080fd5b5061013b60048036038101906101369190610921565b6103fa565b6040516101489190610cb8565b60405180910390f35b34801561015d57600080fd5b50610178600480360381019061017391906108f8565b610578565b005b60008054906101000a900473ffffffffffffffffffffffffffffffffffffffff1673ffffffffffffffffffffffffffffffffffffffff16633805550f83836040518363ffffffff1660e01b81526004016101d5929190610cda565b600060405180830381600087803b1580156101ef57600080fd5b505af1158015610203573d6000803e3d6000fd5b505050505050565b8173ffffffffffffffffffffffffffffffffffffffff1663a9059cbb82856040518363ffffffff1660e01b8152600401610246929190610c8f565b602060405180830381600087803b15801561026057600080fd5b505af1158015610274573d6000803e3d6000fd5b505050506040513d601f19601f820116820180604052508101906102989190610966565b50505050565b60006102a982610368565b90508173ffffffffffffffffffffffffffffffffffffffff16632e1a7d4d826040518263ffffffff1660e01b81526004016102e49190610d40565b600060405180830381600087803b1580156102fe57600080fd5b505af1158015610312573d6000803e3d6000fd5b505050508173ffffffffffffffffffffffffffffffffffffffff167f884edad9ce6fa2440d8a54cc123490eb96d2768479d49ff9c7366125a94243648260405161035c9190610d40565b60405180910390a25050565b60008173ffffffffffffffffffffffffffffffffffffffff166370a08231306040518263ffffffff1660e01b81526004016103a39190610c36565b60206040518083038186803b1580156103bb57600080fd5b505afa1580156103cf573d6000803e3d6000fd5b505050506040513d601f19601f820116820180604052508101906103f391906109d4565b9050919050565b60608282905067ffffffffffffffff81111561043f577f4e487b7100000000000000000000000000000000000000000000000000000000600052604160045260246000fd5b60405190808252806020026020018201604052801561047257816020015b606081526020019060019003908161045d5790505b50905060005b838390508110156105715761051a308585848181106104c0577f4e487b7100000000000000000000000000000000000000000000000000000000600052603260045260246000fd5b90506020028101906104d29190610d5b565b8080601f016020809104026020016040519081016040528093929190818152602001838380828437600081840152601f19601f8201169050808301925050505050505061069c565b828281518110610553577f4e487b7100000000000000000000000000000000000000000000000000000000600052603260045260246000fd5b6020026020010181905250808061056990610ec9565b915050610478565b5092915050565b600061058382610368565b905060008054906101000a900473ffffffffffffffffffffffffffffffffffffffff1673ffffffffffffffffffffffffffffffffffffffff1663e3dec8fb3084846040516020016105d49190610d40565b6040516020818303038152906040526040518463ffffffff1660e01b815260040161060193929190610c51565b600060405180830381600087803b15801561061b57600080fd5b505af115801561062f573d6000803e3d6000fd5b505050508173ffffffffffffffffffffffffffffffffffffffff163073ffffffffffffffffffffffffffffffffffffffff167f6b64443f4cc3aac2df66fff76675a29dc321ce9efebffb006f528db1690179a0836040516106909190610d40565b60405180910390a35050565b60606106c18383604051806060016040528060278152602001610fe7602791396106c9565b905092915050565b60606106d484610796565b610713576040517f08c379a000000000000000000000000000000000000000000000000000000000815260040161070a90610d20565b60405180910390fd5b6000808573ffffffffffffffffffffffffffffffffffffffff168560405161073b9190610c1f565b600060405180830381855af49150503d8060008114610776576040519150601f19603f3d011682016040523d82523d6000602084013e61077b565b606091505b509150915061078b8282866107a9565b925050509392505050565b600080823b905060008111915050919050565b606083156107b957829050610809565b6000835111156107cc5782518084602001fd5b816040517f08c379a00000000000000000000000000000000000000000000000000000000081526004016108009190610cfe565b60405180910390fd5b9392505050565b60008135905061081f81610fa1565b92915050565b60008083601f84011261083757600080fd5b8235905067ffffffffffffffff81111561085057600080fd5b60208301915083602082028301111561086857600080fd5b9250929050565b60008151905061087e81610fb8565b92915050565b60008083601f84011261089657600080fd5b8235905067ffffffffffffffff8111156108af57600080fd5b6020830191508360018202830111156108c757600080fd5b9250929050565b6000813590506108dd81610fcf565b92915050565b6000815190506108f281610fcf565b92915050565b60006020828403121561090a57600080fd5b600061091884828501610810565b91505092915050565b6000806020838503121561093457600080fd5b600083013567ffffffffffffffff81111561094e57600080fd5b61095a85828601610825565b92509250509250929050565b60006020828403121561097857600080fd5b60006109868482850161086f565b91505092915050565b600080602083850312156109a257600080fd5b600083013567ffffffffffffffff8111156109bc57600080fd5b6109c885828601610884565b92509250509250929050565b6000602082840312156109e657600080fd5b60006109f4848285016108e3565b91505092915050565b600080600060608486031215610a1257600080fd5b6000610a20868287016108ce565b9350506020610a3186828701610810565b9250506040610a4286828701610810565b9150509250925092565b6000610a588383610b11565b905092915050565b610a6981610e3f565b82525050565b6000610a7a82610dc2565b610a848185610df0565b935083602082028501610a9685610db2565b8060005b85811015610ad25784840389528151610ab38582610a4c565b9450610abe83610de3565b925060208a01995050600181019050610a9a565b50829750879550505050505092915050565b6000610af08385610e12565b9350610afd838584610e87565b610b0683610f41565b840190509392505050565b6000610b1c82610dcd565b610b268185610e01565b9350610b36818560208601610e96565b610b3f81610f41565b840191505092915050565b6000610b5582610dcd565b610b5f8185610e12565b9350610b6f818560208601610e96565b610b7881610f41565b840191505092915050565b6000610b8e82610dcd565b610b988185610e23565b9350610ba8818560208601610e96565b80840191505092915050565b6000610bbf82610dd8565b610bc98185610e2e565b9350610bd9818560208601610e96565b610be281610f41565b840191505092915050565b6000610bfa602683610e2e565b9150610c0582610f52565b604082019050919050565b610c1981610e7d565b82525050565b6000610c2b8284610b83565b915081905092915050565b6000602082019050610c4b6000830184610a60565b92915050565b6000606082019050610c666000830186610a60565b610c736020830185610a60565b8181036040830152610c858184610b4a565b9050949350505050565b6000604082019050610ca46000830185610a60565b610cb16020830184610c10565b9392505050565b60006020820190508181036000830152610cd28184610a6f565b905092915050565b60006020820190508181036000830152610cf5818486610ae4565b90509392505050565b60006020820190508181036000830152610d188184610bb4565b905092915050565b60006020820190508181036000830152610d3981610bed565b9050919050565b6000602082019050610d556000830184610c10565b92915050565b60008083356001602003843603038112610d7457600080fd5b80840192508235915067ffffffffffffffff821115610d9257600080fd5b602083019250600182023603831315610daa57600080fd5b509250929050565b6000819050602082019050919050565b600081519050919050565b600081519050919050565b600081519050919050565b6000602082019050919050565b600082825260208201905092915050565b600082825260208201905092915050565b600082825260208201905092915050565b600081905092915050565b600082825260208201905092915050565b6000610e4a82610e5d565b9050919050565b60008115159050919050565b600073ffffffffffffffffffffffffffffffffffffffff82169050919050565b6000819050919050565b82818337600083830152505050565b60005b83811015610eb4578082015181840152602081019050610e99565b83811115610ec3576000848401525b50505050565b6000610ed482610e7d565b91507fffffffffffffffffffffffffffffffffffffffffffffffffffffffffffffffff821415610f0757610f06610f12565b5b600182019050919050565b7f4e487b7100000000000000000000000000000000000000000000000000000000600052601160045260246000fd5b6000601f19601f8301169050919050565b7f416464726573733a2064656c65676174652063616c6c20746f206e6f6e2d636f60008201527f6e74726163740000000000000000000000000000000000000000000000000000602082015250565b610faa81610e3f565b8114610fb557600080fd5b50565b610fc181610e51565b8114610fcc57600080fd5b50565b610fd881610e7d565b8114610fe357600080fd5b5056fe416464726573733a206c6f772d6c6576656c2064656c65676174652063616c6c206661696c6564a26469706673582212200cdd177ab2f18b8f0bf2485a9fa41def88ffed3da5a2be452681d2bad1f2cd4964736f6c63430008040033",
  "linkReferences": {},
  "deployedLinkReferences": {}
}