{
  "_format": "hh-sol-artifact-1",
  "contractName": "SimpleBridge",
  "sourceName": "contracts/SimpleBridge.sol",
  "abi": [
    {
      "inputs": [
        {
          "internalType": "address[]",
          "name": "acceptedTokens",
          "type": "address[]"
        }
      ],
      "stateMutability": "nonpayable",
      "type": "constructor"
    },
    {
      "stateMutability": "payable",
      "type": "fallback"
    },
    {
      "inputs": [
        {
          "internalType": "address",
          "name": "token",
          "type": "address"
        }
      ],
      "name": "balanceFor",
      "outputs": [
        {
          "internalType": "uint256",
          "name": "",
          "type": "uint256"
        }
      ],
      "stateMutability": "view",
      "type": "function"
    },
    {
      "inputs": [
        {
          "internalType": "address",
          "name": "token",
          "type": "address"
        }
      ],
      "name": "bridgeToPolygon",
      "outputs": [],
      "stateMutability": "nonpayable",
      "type": "function"
    },
    {
      "inputs": [
        {
          "internalType": "uint256",
          "name": "amount",
          "type": "uint256"
        },
        {
          "internalType": "address",
          "name": "token",
          "type": "address"
        },
        {
          "internalType": "address",
          "name": "user",
          "type": "address"
        }
      ],
      "name": "distribute",
      "outputs": [],
      "stateMutability": "nonpayable",
      "type": "function"
    },
    {
      "inputs": [
        {
          "internalType": "bytes[]",
          "name": "data",
          "type": "bytes[]"
        }
      ],
      "name": "multicall",
      "outputs": [
        {
          "internalType": "bytes[]",
          "name": "results",
          "type": "bytes[]"
        }
      ],
      "stateMutability": "nonpayable",
      "type": "function"
    },
    {
      "inputs": [
        {
          "internalType": "address",
          "name": "token",
          "type": "address"
        }
      ],
      "name": "withdraw",
      "outputs": [],
      "stateMutability": "nonpayable",
      "type": "function"
    }
  ],
  "bytecode": "0x608060405273bbd7cbfa79faee899eaf900f13c9065bf03b1a746000806101000a81548173ffffffffffffffffffffffffffffffffffffffff021916908373ffffffffffffffffffffffffffffffffffffffff16021790555073dd6596f2029e6233deffaca316e6a95217d4dc34600160006101000a81548173ffffffffffffffffffffffffffffffffffffffff021916908373ffffffffffffffffffffffffffffffffffffffff160217905550348015620000ba57600080fd5b506040516200137a3803806200137a8339818101604052810190620000e09190620002fd565b6005461415620002265760005b8151811015620002245781818151811062000131577f4e487b7100000000000000000000000000000000000000000000000000000000600052603260045260246000fd5b602002602001015173ffffffffffffffffffffffffffffffffffffffff1663095ea7b3600160009054906101000a900473ffffffffffffffffffffffffffffffffffffffff167fffffffffffffffffffffffffffffffffffffffffffffffffffffffffffffffff6040518363ffffffff1660e01b8152600401620001b792919062000390565b602060405180830381600087803b158015620001d257600080fd5b505af1158015620001e7573d6000803e3d6000fd5b505050506040513d601f19601f820116820180604052508101906200020d919062000342565b5080806200021b90620004a9565b915050620000ed565b505b506200059a565b6000620002446200023e84620003e6565b620003bd565b905080838252602082019050828560208602820111156200026457600080fd5b60005b858110156200029857816200027d8882620002a2565b84526020840193506020830192505060018101905062000267565b5050509392505050565b600081519050620002b38162000566565b92915050565b600082601f830112620002cb57600080fd5b8151620002dd8482602086016200022d565b91505092915050565b600081519050620002f78162000580565b92915050565b6000602082840312156200031057600080fd5b600082015167ffffffffffffffff8111156200032b57600080fd5b6200033984828501620002b9565b91505092915050565b6000602082840312156200035557600080fd5b60006200036584828501620002e6565b91505092915050565b620003798162000415565b82525050565b6200038a816200045f565b82525050565b6000604082019050620003a760008301856200036e565b620003b660208301846200037f565b9392505050565b6000620003c9620003dc565b9050620003d7828262000473565b919050565b6000604051905090565b600067ffffffffffffffff82111562000404576200040362000526565b5b602082029050602081019050919050565b6000620004228262000435565b9050919050565b60008115159050919050565b600073ffffffffffffffffffffffffffffffffffffffff82169050919050565b6000819050919050565b60006200046c8262000455565b9050919050565b6200047e8262000555565b810181811067ffffffffffffffff82111715620004a0576200049f62000526565b5b80604052505050565b6000620004b68262000455565b91507fffffffffffffffffffffffffffffffffffffffffffffffffffffffffffffffff821415620004ec57620004eb620004f7565b5b600182019050919050565b7f4e487b7100000000000000000000000000000000000000000000000000000000600052601160045260246000fd5b7f4e487b7100000000000000000000000000000000000000000000000000000000600052604160045260246000fd5b6000601f19601f8301169050919050565b620005718162000415565b81146200057d57600080fd5b50565b6200058b8162000429565b81146200059757600080fd5b50565b610dd080620005aa6000396000f3fe60806040526004361061004e5760003560e01c8063451353f11461005157806351cff8d91461007a578063556849ea146100a3578063ac9650d8146100e0578063b16b68fd1461011d5761004f565b5b005b34801561005d57600080fd5b50610078600480360381019061007391906107ea565b610146565b005b34801561008657600080fd5b506100a1600480360381019061009c919061072a565b6101d9565b005b3480156100af57600080fd5b506100ca60048036038101906100c5919061072a565b61024f565b6040516100d79190610adc565b60405180910390f35b3480156100ec57600080fd5b5061010760048036038101906101029190610753565b6102e1565b6040516101149190610a78565b60405180910390f35b34801561012957600080fd5b50610144600480360381019061013f919061072a565b61045f565b005b8173ffffffffffffffffffffffffffffffffffffffff1663a9059cbb82856040518363ffffffff1660e01b8152600401610181929190610a4f565b602060405180830381600087803b15801561019b57600080fd5b505af11580156101af573d6000803e3d6000fd5b505050506040513d601f19601f820116820180604052508101906101d39190610798565b50505050565b8073ffffffffffffffffffffffffffffffffffffffff16632e1a7d4d6101fe8361024f565b6040518263ffffffff1660e01b815260040161021a9190610adc565b600060405180830381600087803b15801561023457600080fd5b505af1158015610248573d6000803e3d6000fd5b5050505050565b60008173ffffffffffffffffffffffffffffffffffffffff166370a08231306040518263ffffffff1660e01b815260040161028a91906109f6565b60206040518083038186803b1580156102a257600080fd5b505afa1580156102b6573d6000803e3d6000fd5b505050506040513d601f19601f820116820180604052508101906102da91906107c1565b9050919050565b60608282905067ffffffffffffffff811115610326577f4e487b7100000000000000000000000000000000000000000000000000000000600052604160045260246000fd5b60405190808252806020026020018201604052801561035957816020015b60608152602001906001900390816103445790505b50905060005b8383905081101561045857610401308585848181106103a7577f4e487b7100000000000000000000000000000000000000000000000000000000600052603260045260246000fd5b90506020028101906103b99190610af7565b8080601f016020809104026020016040519081016040528093929190818152602001838380828437600081840152601f19601f82011690508083019250505050505050610518565b82828151811061043a577f4e487b7100000000000000000000000000000000000000000000000000000000600052603260045260246000fd5b6020026020010181905250808061045090610c56565b91505061035f565b5092915050565b60008054906101000a900473ffffffffffffffffffffffffffffffffffffffff1673ffffffffffffffffffffffffffffffffffffffff1663e3dec8fb30836104a68561024f565b6040516020016104b69190610adc565b6040516020818303038152906040526040518463ffffffff1660e01b81526004016104e393929190610a11565b600060405180830381600087803b1580156104fd57600080fd5b505af1158015610511573d6000803e3d6000fd5b5050505050565b606061053d8383604051806060016040528060278152602001610d7460279139610545565b905092915050565b606061055084610612565b61058f576040517f08c379a000000000000000000000000000000000000000000000000000000000815260040161058690610abc565b60405180910390fd5b6000808573ffffffffffffffffffffffffffffffffffffffff16856040516105b791906109df565b600060405180830381855af49150503d80600081146105f2576040519150601f19603f3d011682016040523d82523d6000602084013e6105f7565b606091505b5091509150610607828286610625565b925050509392505050565b600080823b905060008111915050919050565b6060831561063557829050610685565b6000835111156106485782518084602001fd5b816040517f08c379a000000000000000000000000000000000000000000000000000000000815260040161067c9190610a9a565b60405180910390fd5b9392505050565b60008135905061069b81610d2e565b92915050565b60008083601f8401126106b357600080fd5b8235905067ffffffffffffffff8111156106cc57600080fd5b6020830191508360208202830111156106e457600080fd5b9250929050565b6000815190506106fa81610d45565b92915050565b60008135905061070f81610d5c565b92915050565b60008151905061072481610d5c565b92915050565b60006020828403121561073c57600080fd5b600061074a8482850161068c565b91505092915050565b6000806020838503121561076657600080fd5b600083013567ffffffffffffffff81111561078057600080fd5b61078c858286016106a1565b92509250509250929050565b6000602082840312156107aa57600080fd5b60006107b8848285016106eb565b91505092915050565b6000602082840312156107d357600080fd5b60006107e184828501610715565b91505092915050565b6000806000606084860312156107ff57600080fd5b600061080d86828701610700565b935050602061081e8682870161068c565b925050604061082f8682870161068c565b9150509250925092565b600061084583836108d1565b905092915050565b61085681610bdb565b82525050565b600061086782610b5e565b6108718185610b8c565b93508360208202850161088385610b4e565b8060005b858110156108bf57848403895281516108a08582610839565b94506108ab83610b7f565b925060208a01995050600181019050610887565b50829750879550505050505092915050565b60006108dc82610b69565b6108e68185610b9d565b93506108f6818560208601610c23565b6108ff81610cce565b840191505092915050565b600061091582610b69565b61091f8185610bae565b935061092f818560208601610c23565b61093881610cce565b840191505092915050565b600061094e82610b69565b6109588185610bbf565b9350610968818560208601610c23565b80840191505092915050565b600061097f82610b74565b6109898185610bca565b9350610999818560208601610c23565b6109a281610cce565b840191505092915050565b60006109ba602683610bca565b91506109c582610cdf565b604082019050919050565b6109d981610c19565b82525050565b60006109eb8284610943565b915081905092915050565b6000602082019050610a0b600083018461084d565b92915050565b6000606082019050610a26600083018661084d565b610a33602083018561084d565b8181036040830152610a45818461090a565b9050949350505050565b6000604082019050610a64600083018561084d565b610a7160208301846109d0565b9392505050565b60006020820190508181036000830152610a92818461085c565b905092915050565b60006020820190508181036000830152610ab48184610974565b905092915050565b60006020820190508181036000830152610ad5816109ad565b9050919050565b6000602082019050610af160008301846109d0565b92915050565b60008083356001602003843603038112610b1057600080fd5b80840192508235915067ffffffffffffffff821115610b2e57600080fd5b602083019250600182023603831315610b4657600080fd5b509250929050565b6000819050602082019050919050565b600081519050919050565b600081519050919050565b600081519050919050565b6000602082019050919050565b600082825260208201905092915050565b600082825260208201905092915050565b600082825260208201905092915050565b600081905092915050565b600082825260208201905092915050565b6000610be682610bf9565b9050919050565b60008115159050919050565b600073ffffffffffffffffffffffffffffffffffffffff82169050919050565b6000819050919050565b60005b83811015610c41578082015181840152602081019050610c26565b83811115610c50576000848401525b50505050565b6000610c6182610c19565b91507fffffffffffffffffffffffffffffffffffffffffffffffffffffffffffffffff821415610c9457610c93610c9f565b5b600182019050919050565b7f4e487b7100000000000000000000000000000000000000000000000000000000600052601160045260246000fd5b6000601f19601f8301169050919050565b7f416464726573733a2064656c65676174652063616c6c20746f206e6f6e2d636f60008201527f6e74726163740000000000000000000000000000000000000000000000000000602082015250565b610d3781610bdb565b8114610d4257600080fd5b50565b610d4e81610bed565b8114610d5957600080fd5b50565b610d6581610c19565b8114610d7057600080fd5b5056fe416464726573733a206c6f772d6c6576656c2064656c65676174652063616c6c206661696c6564a26469706673582212206012397b917ca987d0037dada6db3f73057920b9c36d7359c3322ba4901dd19364736f6c63430008040033",
  "linkReferences": {},
  "deployedLinkReferences": {}
}