{
  "_format": "hh-sol-artifact-1",
  "contractName": "SimpleBridge",
  "sourceName": "contracts/SimpleBridge.sol",
  "abi": [
    {
      "inputs": [
        {
          "internalType": "address[]",
          "name": "acceptedTokens",
          "type": "address[]"
        }
      ],
      "stateMutability": "nonpayable",
      "type": "constructor"
    },
    {
      "anonymous": false,
      "inputs": [
        {
          "indexed": true,
          "internalType": "address",
          "name": "owner",
          "type": "address"
        },
        {
          "indexed": true,
          "internalType": "address",
          "name": "token",
          "type": "address"
        },
        {
          "indexed": false,
          "internalType": "uint256",
          "name": "value",
          "type": "uint256"
        }
      ],
      "name": "DepositFor",
      "type": "event"
    },
    {
      "anonymous": false,
      "inputs": [
        {
          "indexed": true,
          "internalType": "address",
          "name": "token",
          "type": "address"
        },
        {
          "indexed": false,
          "internalType": "uint256",
          "name": "value",
          "type": "uint256"
        }
      ],
      "name": "Withdraw",
      "type": "event"
    },
    {
      "stateMutability": "payable",
      "type": "fallback"
    },
    {
      "inputs": [
        {
          "internalType": "address",
          "name": "token",
          "type": "address"
        }
      ],
      "name": "balanceFor",
      "outputs": [
        {
          "internalType": "uint256",
          "name": "",
          "type": "uint256"
        }
      ],
      "stateMutability": "view",
      "type": "function"
    },
    {
      "inputs": [
        {
          "internalType": "address",
          "name": "token",
          "type": "address"
        }
      ],
      "name": "bridgeToPolygon",
      "outputs": [],
      "stateMutability": "nonpayable",
      "type": "function"
    },
    {
      "inputs": [
        {
          "internalType": "uint256",
          "name": "amount",
          "type": "uint256"
        },
        {
          "internalType": "address",
          "name": "token",
          "type": "address"
        },
        {
          "internalType": "address",
          "name": "user",
          "type": "address"
        }
      ],
      "name": "distribute",
      "outputs": [],
      "stateMutability": "nonpayable",
      "type": "function"
    },
    {
      "inputs": [
        {
          "internalType": "bytes",
          "name": "burnTxnHash",
          "type": "bytes"
        }
      ],
      "name": "exit",
      "outputs": [],
      "stateMutability": "nonpayable",
      "type": "function"
    },
    {
      "inputs": [
        {
          "internalType": "bytes[]",
          "name": "data",
          "type": "bytes[]"
        }
      ],
      "name": "multicall",
      "outputs": [
        {
          "internalType": "bytes[]",
          "name": "results",
          "type": "bytes[]"
        }
      ],
      "stateMutability": "nonpayable",
      "type": "function"
    },
    {
      "inputs": [
        {
          "internalType": "address",
          "name": "token",
          "type": "address"
        }
      ],
      "name": "withdraw",
      "outputs": [],
      "stateMutability": "nonpayable",
      "type": "function"
    }
  ],
  "bytecode": "0x608060405273bbd7cbfa79faee899eaf900f13c9065bf03b1a746000806101000a81548173ffffffffffffffffffffffffffffffffffffffff021916908373ffffffffffffffffffffffffffffffffffffffff16021790555073dd6596f2029e6233deffaca316e6a95217d4dc34600160006101000a81548173ffffffffffffffffffffffffffffffffffffffff021916908373ffffffffffffffffffffffffffffffffffffffff160217905550348015620000ba57600080fd5b50604051620015f1380380620015f18339818101604052810190620000e09190620002fd565b6005461415620002265760005b8151811015620002245781818151811062000131577f4e487b7100000000000000000000000000000000000000000000000000000000600052603260045260246000fd5b602002602001015173ffffffffffffffffffffffffffffffffffffffff1663095ea7b3600160009054906101000a900473ffffffffffffffffffffffffffffffffffffffff167fffffffffffffffffffffffffffffffffffffffffffffffffffffffffffffffff6040518363ffffffff1660e01b8152600401620001b792919062000390565b602060405180830381600087803b158015620001d257600080fd5b505af1158015620001e7573d6000803e3d6000fd5b505050506040513d601f19601f820116820180604052508101906200020d919062000342565b5080806200021b90620004a9565b915050620000ed565b505b506200059a565b6000620002446200023e84620003e6565b620003bd565b905080838252602082019050828560208602820111156200026457600080fd5b60005b858110156200029857816200027d8882620002a2565b84526020840193506020830192505060018101905062000267565b5050509392505050565b600081519050620002b38162000566565b92915050565b600082601f830112620002cb57600080fd5b8151620002dd8482602086016200022d565b91505092915050565b600081519050620002f78162000580565b92915050565b6000602082840312156200031057600080fd5b600082015167ffffffffffffffff8111156200032b57600080fd5b6200033984828501620002b9565b91505092915050565b6000602082840312156200035557600080fd5b60006200036584828501620002e6565b91505092915050565b620003798162000415565b82525050565b6200038a816200045f565b82525050565b6000604082019050620003a760008301856200036e565b620003b660208301846200037f565b9392505050565b6000620003c9620003dc565b9050620003d7828262000473565b919050565b6000604051905090565b600067ffffffffffffffff82111562000404576200040362000526565b5b602082029050602081019050919050565b6000620004228262000435565b9050919050565b60008115159050919050565b600073ffffffffffffffffffffffffffffffffffffffff82169050919050565b6000819050919050565b60006200046c8262000455565b9050919050565b6200047e8262000555565b810181811067ffffffffffffffff82111715620004a0576200049f62000526565b5b80604052505050565b6000620004b68262000455565b91507fffffffffffffffffffffffffffffffffffffffffffffffffffffffffffffffff821415620004ec57620004eb620004f7565b5b600182019050919050565b7f4e487b7100000000000000000000000000000000000000000000000000000000600052601160045260246000fd5b7f4e487b7100000000000000000000000000000000000000000000000000000000600052604160045260246000fd5b6000601f19601f8301169050919050565b620005718162000415565b81146200057d57600080fd5b50565b6200058b8162000429565b81146200059757600080fd5b50565b61104780620005aa6000396000f3fe6080604052600436106100595760003560e01c80633805550f1461005c578063451353f11461008557806351cff8d9146100ae578063556849ea146100d7578063ac9650d814610114578063b16b68fd146101515761005a565b5b005b34801561006857600080fd5b50610083600480360381019061007e9190610993565b61017a565b005b34801561009157600080fd5b506100ac60048036038101906100a79190610a01565b61020b565b005b3480156100ba57600080fd5b506100d560048036038101906100d091906108fc565b61029e565b005b3480156100e357600080fd5b506100fe60048036038101906100f991906108fc565b61036a565b60405161010b9190610d44565b60405180910390f35b34801561012057600080fd5b5061013b60048036038101906101369190610925565b6103fc565b6040516101489190610cbc565b60405180910390f35b34801561015d57600080fd5b50610178600480360381019061017391906108fc565b61057a565b005b60008054906101000a900473ffffffffffffffffffffffffffffffffffffffff1673ffffffffffffffffffffffffffffffffffffffff16633805550f83836040518363ffffffff1660e01b81526004016101d5929190610cde565b600060405180830381600087803b1580156101ef57600080fd5b505af1158015610203573d6000803e3d6000fd5b505050505050565b8173ffffffffffffffffffffffffffffffffffffffff1663a9059cbb82856040518363ffffffff1660e01b8152600401610246929190610c93565b602060405180830381600087803b15801561026057600080fd5b505af1158015610274573d6000803e3d6000fd5b505050506040513d601f19601f82011682018060405250810190610298919061096a565b50505050565b8073ffffffffffffffffffffffffffffffffffffffff16632e1a7d4d6102c38361036a565b6040518263ffffffff1660e01b81526004016102df9190610d44565b600060405180830381600087803b1580156102f957600080fd5b505af115801561030d573d6000803e3d6000fd5b505050508073ffffffffffffffffffffffffffffffffffffffff167f884edad9ce6fa2440d8a54cc123490eb96d2768479d49ff9c7366125a94243646103528361036a565b60405161035f9190610d44565b60405180910390a250565b60008173ffffffffffffffffffffffffffffffffffffffff166370a08231306040518263ffffffff1660e01b81526004016103a59190610c3a565b60206040518083038186803b1580156103bd57600080fd5b505afa1580156103d1573d6000803e3d6000fd5b505050506040513d601f19601f820116820180604052508101906103f591906109d8565b9050919050565b60608282905067ffffffffffffffff811115610441577f4e487b7100000000000000000000000000000000000000000000000000000000600052604160045260246000fd5b60405190808252806020026020018201604052801561047457816020015b606081526020019060019003908161045f5790505b50905060005b838390508110156105735761051c308585848181106104c2577f4e487b7100000000000000000000000000000000000000000000000000000000600052603260045260246000fd5b90506020028101906104d49190610d5f565b8080601f016020809104026020016040519081016040528093929190818152602001838380828437600081840152601f19601f820116905080830192505050505050506106a0565b828281518110610555577f4e487b7100000000000000000000000000000000000000000000000000000000600052603260045260246000fd5b6020026020010181905250808061056b90610ecd565b91505061047a565b5092915050565b60008054906101000a900473ffffffffffffffffffffffffffffffffffffffff1673ffffffffffffffffffffffffffffffffffffffff1663e3dec8fb30836105c18561036a565b6040516020016105d19190610d44565b6040516020818303038152906040526040518463ffffffff1660e01b81526004016105fe93929190610c55565b600060405180830381600087803b15801561061857600080fd5b505af115801561062c573d6000803e3d6000fd5b505050508073ffffffffffffffffffffffffffffffffffffffff163073ffffffffffffffffffffffffffffffffffffffff167f6b64443f4cc3aac2df66fff76675a29dc321ce9efebffb006f528db1690179a06106888461036a565b6040516106959190610d44565b60405180910390a350565b60606106c58383604051806060016040528060278152602001610feb602791396106cd565b905092915050565b60606106d88461079a565b610717576040517f08c379a000000000000000000000000000000000000000000000000000000000815260040161070e90610d24565b60405180910390fd5b6000808573ffffffffffffffffffffffffffffffffffffffff168560405161073f9190610c23565b600060405180830381855af49150503d806000811461077a576040519150601f19603f3d011682016040523d82523d6000602084013e61077f565b606091505b509150915061078f8282866107ad565b925050509392505050565b600080823b905060008111915050919050565b606083156107bd5782905061080d565b6000835111156107d05782518084602001fd5b816040517f08c379a00000000000000000000000000000000000000000000000000000000081526004016108049190610d02565b60405180910390fd5b9392505050565b60008135905061082381610fa5565b92915050565b60008083601f84011261083b57600080fd5b8235905067ffffffffffffffff81111561085457600080fd5b60208301915083602082028301111561086c57600080fd5b9250929050565b60008151905061088281610fbc565b92915050565b60008083601f84011261089a57600080fd5b8235905067ffffffffffffffff8111156108b357600080fd5b6020830191508360018202830111156108cb57600080fd5b9250929050565b6000813590506108e181610fd3565b92915050565b6000815190506108f681610fd3565b92915050565b60006020828403121561090e57600080fd5b600061091c84828501610814565b91505092915050565b6000806020838503121561093857600080fd5b600083013567ffffffffffffffff81111561095257600080fd5b61095e85828601610829565b92509250509250929050565b60006020828403121561097c57600080fd5b600061098a84828501610873565b91505092915050565b600080602083850312156109a657600080fd5b600083013567ffffffffffffffff8111156109c057600080fd5b6109cc85828601610888565b92509250509250929050565b6000602082840312156109ea57600080fd5b60006109f8848285016108e7565b91505092915050565b600080600060608486031215610a1657600080fd5b6000610a24868287016108d2565b9350506020610a3586828701610814565b9250506040610a4686828701610814565b9150509250925092565b6000610a5c8383610b15565b905092915050565b610a6d81610e43565b82525050565b6000610a7e82610dc6565b610a888185610df4565b935083602082028501610a9a85610db6565b8060005b85811015610ad65784840389528151610ab78582610a50565b9450610ac283610de7565b925060208a01995050600181019050610a9e565b50829750879550505050505092915050565b6000610af48385610e16565b9350610b01838584610e8b565b610b0a83610f45565b840190509392505050565b6000610b2082610dd1565b610b2a8185610e05565b9350610b3a818560208601610e9a565b610b4381610f45565b840191505092915050565b6000610b5982610dd1565b610b638185610e16565b9350610b73818560208601610e9a565b610b7c81610f45565b840191505092915050565b6000610b9282610dd1565b610b9c8185610e27565b9350610bac818560208601610e9a565b80840191505092915050565b6000610bc382610ddc565b610bcd8185610e32565b9350610bdd818560208601610e9a565b610be681610f45565b840191505092915050565b6000610bfe602683610e32565b9150610c0982610f56565b604082019050919050565b610c1d81610e81565b82525050565b6000610c2f8284610b87565b915081905092915050565b6000602082019050610c4f6000830184610a64565b92915050565b6000606082019050610c6a6000830186610a64565b610c776020830185610a64565b8181036040830152610c898184610b4e565b9050949350505050565b6000604082019050610ca86000830185610a64565b610cb56020830184610c14565b9392505050565b60006020820190508181036000830152610cd68184610a73565b905092915050565b60006020820190508181036000830152610cf9818486610ae8565b90509392505050565b60006020820190508181036000830152610d1c8184610bb8565b905092915050565b60006020820190508181036000830152610d3d81610bf1565b9050919050565b6000602082019050610d596000830184610c14565b92915050565b60008083356001602003843603038112610d7857600080fd5b80840192508235915067ffffffffffffffff821115610d9657600080fd5b602083019250600182023603831315610dae57600080fd5b509250929050565b6000819050602082019050919050565b600081519050919050565b600081519050919050565b600081519050919050565b6000602082019050919050565b600082825260208201905092915050565b600082825260208201905092915050565b600082825260208201905092915050565b600081905092915050565b600082825260208201905092915050565b6000610e4e82610e61565b9050919050565b60008115159050919050565b600073ffffffffffffffffffffffffffffffffffffffff82169050919050565b6000819050919050565b82818337600083830152505050565b60005b83811015610eb8578082015181840152602081019050610e9d565b83811115610ec7576000848401525b50505050565b6000610ed882610e81565b91507fffffffffffffffffffffffffffffffffffffffffffffffffffffffffffffffff821415610f0b57610f0a610f16565b5b600182019050919050565b7f4e487b7100000000000000000000000000000000000000000000000000000000600052601160045260246000fd5b6000601f19601f8301169050919050565b7f416464726573733a2064656c65676174652063616c6c20746f206e6f6e2d636f60008201527f6e74726163740000000000000000000000000000000000000000000000000000602082015250565b610fae81610e43565b8114610fb957600080fd5b50565b610fc581610e55565b8114610fd057600080fd5b50565b610fdc81610e81565b8114610fe757600080fd5b5056fe416464726573733a206c6f772d6c6576656c2064656c65676174652063616c6c206661696c6564a2646970667358221220dac3602ea16a071a45232ba982f6f5d327e1f164a1dfdfae23d9e301be19efb064736f6c63430008040033",
  "linkReferences": {},
  "deployedLinkReferences": {}
}